{
  "_format": "hh-sol-artifact-1",
  "contractName": "WarrantyCardContract",
  "sourceName": "contracts/warranty.sol",
  "abi": [
    {
      "inputs": [],
      "stateMutability": "nonpayable",
      "type": "constructor"
    },
    {
      "anonymous": false,
      "inputs": [
        {
          "indexed": true,
          "internalType": "address",
          "name": "owner",
          "type": "address"
        },
        {
          "indexed": true,
          "internalType": "address",
          "name": "approved",
          "type": "address"
        },
        {
          "indexed": true,
          "internalType": "uint256",
          "name": "tokenId",
          "type": "uint256"
        }
      ],
      "name": "Approval",
      "type": "event"
    },
    {
      "anonymous": false,
      "inputs": [
        {
          "indexed": true,
          "internalType": "address",
          "name": "owner",
          "type": "address"
        },
        {
          "indexed": true,
          "internalType": "address",
          "name": "operator",
          "type": "address"
        },
        {
          "indexed": false,
          "internalType": "bool",
          "name": "approved",
          "type": "bool"
        }
      ],
      "name": "ApprovalForAll",
      "type": "event"
    },
    {
      "anonymous": false,
      "inputs": [
        {
          "indexed": true,
          "internalType": "address",
          "name": "previousOwner",
          "type": "address"
        },
        {
          "indexed": true,
          "internalType": "address",
          "name": "newOwner",
          "type": "address"
        }
      ],
      "name": "OwnershipTransferred",
      "type": "event"
    },
    {
      "anonymous": false,
      "inputs": [
        {
          "indexed": true,
          "internalType": "address",
          "name": "from",
          "type": "address"
        },
        {
          "indexed": true,
          "internalType": "address",
          "name": "to",
          "type": "address"
        },
        {
          "indexed": true,
          "internalType": "uint256",
          "name": "tokenId",
          "type": "uint256"
        }
      ],
      "name": "Transfer",
      "type": "event"
    },
    {
      "inputs": [
        {
          "internalType": "address",
          "name": "to",
          "type": "address"
        },
        {
          "internalType": "uint256",
          "name": "tokenId",
          "type": "uint256"
        }
      ],
      "name": "approve",
      "outputs": [],
      "stateMutability": "nonpayable",
      "type": "function"
    },
    {
      "inputs": [
        {
          "internalType": "address",
          "name": "owner",
          "type": "address"
        }
      ],
      "name": "balanceOf",
      "outputs": [
        {
          "internalType": "uint256",
          "name": "",
          "type": "uint256"
        }
      ],
      "stateMutability": "view",
      "type": "function"
    },
    {
      "inputs": [
        {
          "internalType": "uint256",
          "name": "tokenId",
          "type": "uint256"
        }
      ],
      "name": "burn",
      "outputs": [],
      "stateMutability": "nonpayable",
      "type": "function"
    },
    {
      "inputs": [
        {
          "internalType": "uint256",
          "name": "tokenId",
          "type": "uint256"
        }
      ],
      "name": "getApproved",
      "outputs": [
        {
          "internalType": "address",
          "name": "",
          "type": "address"
        }
      ],
      "stateMutability": "view",
      "type": "function"
    },
    {
      "inputs": [
        {
          "internalType": "uint256",
          "name": "tokenId",
          "type": "uint256"
        }
      ],
      "name": "getWarrantyCardDetails",
      "outputs": [
        {
          "components": [
            {
              "internalType": "uint256",
              "name": "product_serial_no",
              "type": "uint256"
            },
            {
              "internalType": "uint256",
              "name": "issue_date_time",
              "type": "uint256"
            },
            {
              "internalType": "uint256",
              "name": "warranty_duration",
              "type": "uint256"
            },
            {
              "internalType": "uint256",
              "name": "no_transfers_allowed",
              "type": "uint256"
            }
          ],
          "internalType": "struct WarrantyCardContract.WarrantyCard",
          "name": "",
          "type": "tuple"
        }
      ],
      "stateMutability": "view",
      "type": "function"
    },
    {
      "inputs": [
        {
          "internalType": "uint256",
          "name": "tokenId",
          "type": "uint256"
        }
      ],
      "name": "getWarrantyCardIssueDateTime",
      "outputs": [
        {
          "internalType": "uint256",
          "name": "",
          "type": "uint256"
        }
      ],
      "stateMutability": "view",
      "type": "function"
    },
    {
      "inputs": [
        {
          "internalType": "uint256",
          "name": "tokenId",
          "type": "uint256"
        }
      ],
      "name": "getWarrantyCardNoOfTransfersAllowed",
      "outputs": [
        {
          "internalType": "uint256",
          "name": "",
          "type": "uint256"
        }
      ],
      "stateMutability": "view",
      "type": "function"
    },
    {
      "inputs": [
        {
          "internalType": "uint256",
          "name": "tokenId",
          "type": "uint256"
        }
      ],
      "name": "getWarrantyCardProductSerialNo",
      "outputs": [
        {
          "internalType": "uint256",
          "name": "",
          "type": "uint256"
        }
      ],
      "stateMutability": "view",
      "type": "function"
    },
    {
      "inputs": [
        {
          "internalType": "uint256",
          "name": "tokenId",
          "type": "uint256"
        }
      ],
      "name": "getWarrantyCardWarrantyDuration",
      "outputs": [
        {
          "internalType": "uint256",
          "name": "",
          "type": "uint256"
        }
      ],
      "stateMutability": "view",
      "type": "function"
    },
    {
      "inputs": [
        {
          "internalType": "address",
          "name": "owner",
          "type": "address"
        },
        {
          "internalType": "address",
          "name": "operator",
          "type": "address"
        }
      ],
      "name": "isApprovedForAll",
      "outputs": [
        {
          "internalType": "bool",
          "name": "",
          "type": "bool"
        }
      ],
      "stateMutability": "view",
      "type": "function"
    },
    {
      "inputs": [
        {
          "internalType": "uint256",
          "name": "tokenId",
          "type": "uint256"
        }
      ],
      "name": "isWarrantyStillApplicable",
      "outputs": [
        {
          "internalType": "bool",
          "name": "",
          "type": "bool"
        }
      ],
      "stateMutability": "view",
      "type": "function"
    },
    {
      "inputs": [
        {
          "internalType": "uint256",
          "name": "_product_serial_no",
          "type": "uint256"
        },
        {
          "internalType": "uint256",
          "name": "_warranty_duration",
          "type": "uint256"
        },
        {
          "internalType": "uint256",
          "name": "_no_transfers_allowed",
          "type": "uint256"
        },
        {
          "internalType": "address",
          "name": "to",
          "type": "address"
        },
        {
          "internalType": "string",
          "name": "tokenUri",
          "type": "string"
        }
      ],
      "name": "mintWarrantyCard",
      "outputs": [],
      "stateMutability": "nonpayable",
      "type": "function"
    },
    {
      "inputs": [],
      "name": "name",
      "outputs": [
        {
          "internalType": "string",
          "name": "",
          "type": "string"
        }
      ],
      "stateMutability": "view",
      "type": "function"
    },
    {
      "inputs": [],
      "name": "owner",
      "outputs": [
        {
          "internalType": "address",
          "name": "",
          "type": "address"
        }
      ],
      "stateMutability": "view",
      "type": "function"
    },
    {
      "inputs": [
        {
          "internalType": "uint256",
          "name": "tokenId",
          "type": "uint256"
        }
      ],
      "name": "ownerOf",
      "outputs": [
        {
          "internalType": "address",
          "name": "",
          "type": "address"
        }
      ],
      "stateMutability": "view",
      "type": "function"
    },
    {
      "inputs": [],
      "name": "renounceOwnership",
      "outputs": [],
      "stateMutability": "nonpayable",
      "type": "function"
    },
    {
      "inputs": [
        {
          "internalType": "address",
          "name": "from",
          "type": "address"
        },
        {
          "internalType": "address",
          "name": "to",
          "type": "address"
        },
        {
          "internalType": "uint256",
          "name": "tokenId",
          "type": "uint256"
        }
      ],
      "name": "safeTransferFrom",
      "outputs": [],
      "stateMutability": "nonpayable",
      "type": "function"
    },
    {
      "inputs": [
        {
          "internalType": "address",
          "name": "from",
          "type": "address"
        },
        {
          "internalType": "address",
          "name": "to",
          "type": "address"
        },
        {
          "internalType": "uint256",
          "name": "tokenId",
          "type": "uint256"
        },
        {
          "internalType": "bytes",
          "name": "data",
          "type": "bytes"
        }
      ],
      "name": "safeTransferFrom",
      "outputs": [],
      "stateMutability": "nonpayable",
      "type": "function"
    },
    {
      "inputs": [
        {
          "internalType": "address",
          "name": "operator",
          "type": "address"
        },
        {
          "internalType": "bool",
          "name": "approved",
          "type": "bool"
        }
      ],
      "name": "setApprovalForAll",
      "outputs": [],
      "stateMutability": "nonpayable",
      "type": "function"
    },
    {
      "inputs": [
        {
          "internalType": "bytes4",
          "name": "interfaceId",
          "type": "bytes4"
        }
      ],
      "name": "supportsInterface",
      "outputs": [
        {
          "internalType": "bool",
          "name": "",
          "type": "bool"
        }
      ],
      "stateMutability": "view",
      "type": "function"
    },
    {
      "inputs": [],
      "name": "symbol",
      "outputs": [
        {
          "internalType": "string",
          "name": "",
          "type": "string"
        }
      ],
      "stateMutability": "view",
      "type": "function"
    },
    {
      "inputs": [
        {
          "internalType": "uint256",
          "name": "index",
          "type": "uint256"
        }
      ],
      "name": "tokenByIndex",
      "outputs": [
        {
          "internalType": "uint256",
          "name": "",
          "type": "uint256"
        }
      ],
      "stateMutability": "view",
      "type": "function"
    },
    {
      "inputs": [
        {
          "internalType": "address",
          "name": "owner",
          "type": "address"
        },
        {
          "internalType": "uint256",
          "name": "index",
          "type": "uint256"
        }
      ],
      "name": "tokenOfOwnerByIndex",
      "outputs": [
        {
          "internalType": "uint256",
          "name": "",
          "type": "uint256"
        }
      ],
      "stateMutability": "view",
      "type": "function"
    },
    {
      "inputs": [
        {
          "internalType": "uint256",
          "name": "tokenId",
          "type": "uint256"
        }
      ],
      "name": "tokenURI",
      "outputs": [
        {
          "internalType": "string",
          "name": "",
          "type": "string"
        }
      ],
      "stateMutability": "view",
      "type": "function"
    },
    {
      "inputs": [],
      "name": "totalSupply",
      "outputs": [
        {
          "internalType": "uint256",
          "name": "",
          "type": "uint256"
        }
      ],
      "stateMutability": "view",
      "type": "function"
    },
    {
      "inputs": [
        {
          "internalType": "address",
          "name": "from",
          "type": "address"
        },
        {
          "internalType": "address",
          "name": "to",
          "type": "address"
        },
        {
          "internalType": "uint256",
          "name": "tokenId",
          "type": "uint256"
        }
      ],
      "name": "transferFrom",
      "outputs": [],
      "stateMutability": "nonpayable",
      "type": "function"
    },
    {
      "inputs": [
        {
          "internalType": "address",
          "name": "newOwner",
          "type": "address"
        }
      ],
      "name": "transferOwnership",
      "outputs": [],
      "stateMutability": "nonpayable",
      "type": "function"
    }
  ],
  "bytecode": "0x60806040523480156200001157600080fd5b506040518060400160405280600c81526020017f57617272616e74794361726400000000000000000000000000000000000000008152506040518060400160405280600281526020017f5743000000000000000000000000000000000000000000000000000000000000815250816000908051906020019062000096929190620001a6565b508060019080519060200190620000af929190620001a6565b505050620000d2620000c6620000d860201b60201c565b620000e060201b60201c565b620002bb565b600033905090565b6000600b60009054906101000a900473ffffffffffffffffffffffffffffffffffffffff16905081600b60006101000a81548173ffffffffffffffffffffffffffffffffffffffff021916908373ffffffffffffffffffffffffffffffffffffffff1602179055508173ffffffffffffffffffffffffffffffffffffffff168173ffffffffffffffffffffffffffffffffffffffff167f8be0079c531659141344cd1fd0a4f28419497f9722a3daafe3b4186f6b6457e060405160405180910390a35050565b828054620001b49062000256565b90600052602060002090601f016020900481019282620001d8576000855562000224565b82601f10620001f357805160ff191683800117855562000224565b8280016001018555821562000224579182015b828111156200022357825182559160200191906001019062000206565b5b50905062000233919062000237565b5090565b5b808211156200025257600081600090555060010162000238565b5090565b600060028204905060018216806200026f57607f821691505b602082108114156200028657620002856200028c565b5b50919050565b7f4e487b7100000000000000000000000000000000000000000000000000000000600052602260045260246000fd5b613fda80620002cb6000396000f3fe608060405234801561001057600080fd5b50600436106101a95760003560e01c80636352211e116100f9578063ab73d55011610097578063c82a5afb11610071578063c82a5afb14610504578063c87b56dd14610534578063e985e9c514610564578063f2fde38b14610594576101a9565b8063ab73d55014610488578063b88d4fde146104b8578063bba72639146104d4576101a9565b806380271947116100d357806380271947146104145780638da5cb5b1461043057806395d89b411461044e578063a22cb4651461046c576101a9565b80636352211e146103aa57806370a08231146103da578063715018a61461040a576101a9565b806321c2c3b1116101665780632f745c59116101405780632f745c591461031257806342842e0e1461034257806342966c681461035e5780634f6ccce71461037a576101a9565b806321c2c3b11461029657806323b872dd146102c65780632534f230146102e2576101a9565b806301ffc9a7146101ae57806306fdde03146101de578063081812fc146101fc578063095ea7b31461022c57806318160ddd146102485780631c4e197814610266575b600080fd5b6101c860048036038101906101c39190612e93565b6105b0565b6040516101d591906133d2565b60405180910390f35b6101e66105c2565b6040516101f391906133ed565b60405180910390f35b61021660048036038101906102119190612ee5565b610654565b604051610223919061336b565b60405180910390f35b61024660048036038101906102419190612e57565b61069a565b005b6102506107b2565b60405161025d919061366a565b60405180910390f35b610280600480360381019061027b9190612ee5565b6107bf565b60405161028d919061366a565b60405180910390f35b6102b060048036038101906102ab9190612ee5565b61085a565b6040516102bd91906133d2565b60405180910390f35b6102e060048036038101906102db9190612d51565b6108ca565b005b6102fc60048036038101906102f79190612ee5565b61092a565b604051610309919061364f565b60405180910390f35b61032c60048036038101906103279190612e57565b6109fb565b604051610339919061366a565b60405180910390f35b61035c60048036038101906103579190612d51565b610aa0565b005b61037860048036038101906103739190612ee5565b610ac0565b005b610394600480360381019061038f9190612ee5565b610b1c565b6040516103a1919061366a565b60405180910390f35b6103c460048036038101906103bf9190612ee5565b610bb3565b6040516103d1919061336b565b60405180910390f35b6103f460048036038101906103ef9190612cec565b610c65565b604051610401919061366a565b60405180910390f35b610412610d1d565b005b61042e60048036038101906104299190612f0e565b610d31565b005b610438610d79565b604051610445919061336b565b60405180910390f35b610456610da3565b60405161046391906133ed565b60405180910390f35b61048660048036038101906104819190612e1b565b610e35565b005b6104a2600480360381019061049d9190612ee5565b610e4b565b6040516104af919061366a565b60405180910390f35b6104d260048036038101906104cd9190612da0565b610ee6565b005b6104ee60048036038101906104e99190612ee5565b610f48565b6040516104fb919061366a565b60405180910390f35b61051e60048036038101906105199190612ee5565b610fe3565b60405161052b919061366a565b60405180910390f35b61054e60048036038101906105499190612ee5565b61107e565b60405161055b91906133ed565b60405180910390f35b61057e60048036038101906105799190612d15565b611090565b60405161058b91906133d2565b60405180910390f35b6105ae60048036038101906105a99190612cec565b611124565b005b60006105bb826111a8565b9050919050565b6060600080546105d19061391a565b80601f01602080910402602001604051908101604052809291908181526020018280546105fd9061391a565b801561064a5780601f1061061f5761010080835404028352916020019161064a565b820191906000526020600020905b81548152906001019060200180831161062d57829003601f168201915b5050505050905090565b600061065f82611222565b6004600083815260200190815260200160002060009054906101000a900473ffffffffffffffffffffffffffffffffffffffff169050919050565b60006106a582610bb3565b90508073ffffffffffffffffffffffffffffffffffffffff168373ffffffffffffffffffffffffffffffffffffffff161415610716576040517f08c379a000000000000000000000000000000000000000000000000000000000815260040161070d906135cf565b60405180910390fd5b8073ffffffffffffffffffffffffffffffffffffffff1661073561126d565b73ffffffffffffffffffffffffffffffffffffffff16148061076457506107638161075e61126d565b611090565b5b6107a3576040517f08c379a000000000000000000000000000000000000000000000000000000000815260040161079a9061354f565b60405180910390fd5b6107ad8383611275565b505050565b6000600880549050905090565b6000806107cb83610bb3565b90508073ffffffffffffffffffffffffffffffffffffffff163373ffffffffffffffffffffffffffffffffffffffff161461083b576040517f08c379a0000000000000000000000000000000000000000000000000000000008152600401610832906135ef565b60405180910390fd5b600d600084815260200190815260200160002060000154915050919050565b600080600d6000848152602001908152602001600020600101549050600062015180600d60008681526020019081526020016000206002015461089d91906137d6565b905060004290508082846108b1919061374f565b116108bd5760006108c0565b60015b9350505050919050565b6108db6108d561126d565b8261132e565b61091a576040517f08c379a00000000000000000000000000000000000000000000000000000000081526004016109119061362f565b60405180910390fd5b6109258383836113c3565b505050565b610932612aa8565b600061093d83610bb3565b90508073ffffffffffffffffffffffffffffffffffffffff163373ffffffffffffffffffffffffffffffffffffffff16146109ad576040517f08c379a00000000000000000000000000000000000000000000000000000000081526004016109a4906135ef565b60405180910390fd5b600d6000848152602001908152602001600020604051806080016040529081600082015481526020016001820154815260200160028201548152602001600382015481525050915050919050565b6000610a0683610c65565b8210610a47576040517f08c379a0000000000000000000000000000000000000000000000000000000008152600401610a3e9061340f565b60405180910390fd5b600660008473ffffffffffffffffffffffffffffffffffffffff1673ffffffffffffffffffffffffffffffffffffffff168152602001908152602001600020600083815260200190815260200160002054905092915050565b610abb83838360405180602001604052806000815250610ee6565b505050565b610ad1610acb61126d565b8261132e565b610b10576040517f08c379a0000000000000000000000000000000000000000000000000000000008152600401610b079061362f565b60405180910390fd5b610b198161162a565b50565b6000610b266107b2565b8210610b67576040517f08c379a0000000000000000000000000000000000000000000000000000000008152600401610b5e9061360f565b60405180910390fd5b60088281548110610ba1577f4e487b7100000000000000000000000000000000000000000000000000000000600052603260045260246000fd5b90600052602060002001549050919050565b6000806002600084815260200190815260200160002060009054906101000a900473ffffffffffffffffffffffffffffffffffffffff169050600073ffffffffffffffffffffffffffffffffffffffff168173ffffffffffffffffffffffffffffffffffffffff161415610c5c576040517f08c379a0000000000000000000000000000000000000000000000000000000008152600401610c53906135af565b60405180910390fd5b80915050919050565b60008073ffffffffffffffffffffffffffffffffffffffff168273ffffffffffffffffffffffffffffffffffffffff161415610cd6576040517f08c379a0000000000000000000000000000000000000000000000000000000008152600401610ccd906134ef565b60405180910390fd5b600360008373ffffffffffffffffffffffffffffffffffffffff1673ffffffffffffffffffffffffffffffffffffffff168152602001908152602001600020549050919050565b610d2561166c565b610d2f60006116ea565b565b610d3961166c565b6000610d45600c6117b0565b9050610d51600c6117be565b610d5b83826117d4565b610d6581836117f2565b610d7186868684611866565b505050505050565b6000600b60009054906101000a900473ffffffffffffffffffffffffffffffffffffffff16905090565b606060018054610db29061391a565b80601f0160208091040260200160405190810160405280929190818152602001828054610dde9061391a565b8015610e2b5780601f10610e0057610100808354040283529160200191610e2b565b820191906000526020600020905b815481529060010190602001808311610e0e57829003601f168201915b5050505050905090565b610e47610e4061126d565b83836118d1565b5050565b600080610e5783610bb3565b90508073ffffffffffffffffffffffffffffffffffffffff163373ffffffffffffffffffffffffffffffffffffffff1614610ec7576040517f08c379a0000000000000000000000000000000000000000000000000000000008152600401610ebe906135ef565b60405180910390fd5b600d600084815260200190815260200160002060020154915050919050565b610ef7610ef161126d565b8361132e565b610f36576040517f08c379a0000000000000000000000000000000000000000000000000000000008152600401610f2d9061362f565b60405180910390fd5b610f4284848484611a3e565b50505050565b600080610f5483610bb3565b90508073ffffffffffffffffffffffffffffffffffffffff163373ffffffffffffffffffffffffffffffffffffffff1614610fc4576040517f08c379a0000000000000000000000000000000000000000000000000000000008152600401610fbb906135ef565b60405180910390fd5b600d600084815260200190815260200160002060030154915050919050565b600080610fef83610bb3565b90508073ffffffffffffffffffffffffffffffffffffffff163373ffffffffffffffffffffffffffffffffffffffff161461105f576040517f08c379a0000000000000000000000000000000000000000000000000000000008152600401611056906135ef565b60405180910390fd5b600d600084815260200190815260200160002060010154915050919050565b606061108982611a9a565b9050919050565b6000600560008473ffffffffffffffffffffffffffffffffffffffff1673ffffffffffffffffffffffffffffffffffffffff16815260200190815260200160002060008373ffffffffffffffffffffffffffffffffffffffff1673ffffffffffffffffffffffffffffffffffffffff16815260200190815260200160002060009054906101000a900460ff16905092915050565b61112c61166c565b600073ffffffffffffffffffffffffffffffffffffffff168173ffffffffffffffffffffffffffffffffffffffff16141561119c576040517f08c379a00000000000000000000000000000000000000000000000000000000081526004016111939061344f565b60405180910390fd5b6111a5816116ea565b50565b60007f780e9d63000000000000000000000000000000000000000000000000000000007bffffffffffffffffffffffffffffffffffffffffffffffffffffffff1916827bffffffffffffffffffffffffffffffffffffffffffffffffffffffff1916148061121b575061121a82611bad565b5b9050919050565b61122b81611c8f565b61126a576040517f08c379a0000000000000000000000000000000000000000000000000000000008152600401611261906135af565b60405180910390fd5b50565b600033905090565b816004600083815260200190815260200160002060006101000a81548173ffffffffffffffffffffffffffffffffffffffff021916908373ffffffffffffffffffffffffffffffffffffffff160217905550808273ffffffffffffffffffffffffffffffffffffffff166112e883610bb3565b73ffffffffffffffffffffffffffffffffffffffff167f8c5be1e5ebec7d5bd14f71427d1e84f3dd0314c0f7b2291e5b200ac8c7c3b92560405160405180910390a45050565b60008061133a83610bb3565b90508073ffffffffffffffffffffffffffffffffffffffff168473ffffffffffffffffffffffffffffffffffffffff16148061137c575061137b8185611090565b5b806113ba57508373ffffffffffffffffffffffffffffffffffffffff166113a284610654565b73ffffffffffffffffffffffffffffffffffffffff16145b91505092915050565b8273ffffffffffffffffffffffffffffffffffffffff166113e382610bb3565b73ffffffffffffffffffffffffffffffffffffffff1614611439576040517f08c379a00000000000000000000000000000000000000000000000000000000081526004016114309061346f565b60405180910390fd5b600073ffffffffffffffffffffffffffffffffffffffff168273ffffffffffffffffffffffffffffffffffffffff1614156114a9576040517f08c379a00000000000000000000000000000000000000000000000000000000081526004016114a0906134af565b60405180910390fd5b6114b4838383611cfb565b6114bf600082611275565b6001600360008573ffffffffffffffffffffffffffffffffffffffff1673ffffffffffffffffffffffffffffffffffffffff168152602001908152602001600020600082825461150f9190613830565b925050819055506001600360008473ffffffffffffffffffffffffffffffffffffffff1673ffffffffffffffffffffffffffffffffffffffff1681526020019081526020016000206000828254611566919061374f565b92505081905550816002600083815260200190815260200160002060006101000a81548173ffffffffffffffffffffffffffffffffffffffff021916908373ffffffffffffffffffffffffffffffffffffffff160217905550808273ffffffffffffffffffffffffffffffffffffffff168473ffffffffffffffffffffffffffffffffffffffff167fddf252ad1be2c89b69c2b068fc378daa952ba7f163c4a11628f55a4df523b3ef60405160405180910390a4611625838383611d9b565b505050565b61163381611e1d565b600d6000828152602001908152602001600020600080820160009055600182016000905560028201600090556003820160009055505050565b61167461126d565b73ffffffffffffffffffffffffffffffffffffffff16611692610d79565b73ffffffffffffffffffffffffffffffffffffffff16146116e8576040517f08c379a00000000000000000000000000000000000000000000000000000000081526004016116df9061358f565b60405180910390fd5b565b6000600b60009054906101000a900473ffffffffffffffffffffffffffffffffffffffff16905081600b60006101000a81548173ffffffffffffffffffffffffffffffffffffffff021916908373ffffffffffffffffffffffffffffffffffffffff1602179055508173ffffffffffffffffffffffffffffffffffffffff168173ffffffffffffffffffffffffffffffffffffffff167f8be0079c531659141344cd1fd0a4f28419497f9722a3daafe3b4186f6b6457e060405160405180910390a35050565b600081600001549050919050565b6001816000016000828254019250508190555050565b6117ee828260405180602001604052806000815250611e70565b5050565b6117fb82611c8f565b61183a576040517f08c379a00000000000000000000000000000000000000000000000000000000081526004016118319061350f565b60405180910390fd5b80600a60008481526020019081526020016000209080519060200190611861929190612ad0565b505050565b6000604051806080016040528086815260200142815260200185815260200184815250905080600d6000848152602001908152602001600020600082015181600001556020820151816001015560408201518160020155606082015181600301559050505050505050565b8173ffffffffffffffffffffffffffffffffffffffff168373ffffffffffffffffffffffffffffffffffffffff161415611940576040517f08c379a0000000000000000000000000000000000000000000000000000000008152600401611937906134cf565b60405180910390fd5b80600560008573ffffffffffffffffffffffffffffffffffffffff1673ffffffffffffffffffffffffffffffffffffffff16815260200190815260200160002060008473ffffffffffffffffffffffffffffffffffffffff1673ffffffffffffffffffffffffffffffffffffffff16815260200190815260200160002060006101000a81548160ff0219169083151502179055508173ffffffffffffffffffffffffffffffffffffffff168373ffffffffffffffffffffffffffffffffffffffff167f17307eab39ab6107e8899845ad3d59bd9653f200f220920489ca2b5937696c3183604051611a3191906133d2565b60405180910390a3505050565b611a498484846113c3565b611a5584848484611ecb565b611a94576040517f08c379a0000000000000000000000000000000000000000000000000000000008152600401611a8b9061342f565b60405180910390fd5b50505050565b6060611aa582611222565b6000600a60008481526020019081526020016000208054611ac59061391a565b80601f0160208091040260200160405190810160405280929190818152602001828054611af19061391a565b8015611b3e5780601f10611b1357610100808354040283529160200191611b3e565b820191906000526020600020905b815481529060010190602001808311611b2157829003601f168201915b505050505090506000611b4f612062565b9050600081511415611b65578192505050611ba8565b600082511115611b9a578082604051602001611b82929190613347565b60405160208183030381529060405292505050611ba8565b611ba384612079565b925050505b919050565b60007f80ac58cd000000000000000000000000000000000000000000000000000000007bffffffffffffffffffffffffffffffffffffffffffffffffffffffff1916827bffffffffffffffffffffffffffffffffffffffffffffffffffffffff19161480611c7857507f5b5e139f000000000000000000000000000000000000000000000000000000007bffffffffffffffffffffffffffffffffffffffffffffffffffffffff1916827bffffffffffffffffffffffffffffffffffffffffffffffffffffffff1916145b80611c885750611c87826120e1565b5b9050919050565b60008073ffffffffffffffffffffffffffffffffffffffff166002600084815260200190815260200160002060009054906101000a900473ffffffffffffffffffffffffffffffffffffffff1673ffffffffffffffffffffffffffffffffffffffff1614159050919050565b611d0683838361214b565b600073ffffffffffffffffffffffffffffffffffffffff168373ffffffffffffffffffffffffffffffffffffffff161480611d5757506000600d600083815260200190815260200160002060030154115b611d96576040517f08c379a0000000000000000000000000000000000000000000000000000000008152600401611d8d9061352f565b60405180910390fd5b505050565b611da683838361225f565b600073ffffffffffffffffffffffffffffffffffffffff168373ffffffffffffffffffffffffffffffffffffffff1614611e18576001600d600083815260200190815260200160002060030154611dfd9190613830565b600d6000838152602001908152602001600020600301819055505b505050565b611e2681612264565b6000600a60008381526020019081526020016000208054611e469061391a565b905014611e6d57600a60008281526020019081526020016000206000611e6c9190612b56565b5b50565b611e7a8383612381565b611e876000848484611ecb565b611ec6576040517f08c379a0000000000000000000000000000000000000000000000000000000008152600401611ebd9061342f565b60405180910390fd5b505050565b6000611eec8473ffffffffffffffffffffffffffffffffffffffff1661255b565b15612055578373ffffffffffffffffffffffffffffffffffffffff1663150b7a02611f1561126d565b8786866040518563ffffffff1660e01b8152600401611f379493929190613386565b602060405180830381600087803b158015611f5157600080fd5b505af1925050508015611f8257506040513d601f19601f82011682018060405250810190611f7f9190612ebc565b60015b612005573d8060008114611fb2576040519150601f19603f3d011682016040523d82523d6000602084013e611fb7565b606091505b50600081511415611ffd576040517f08c379a0000000000000000000000000000000000000000000000000000000008152600401611ff49061342f565b60405180910390fd5b805181602001fd5b63150b7a0260e01b7bffffffffffffffffffffffffffffffffffffffffffffffffffffffff1916817bffffffffffffffffffffffffffffffffffffffffffffffffffffffff19161491505061205a565b600190505b949350505050565b606060405180602001604052806000815250905090565b606061208482611222565b600061208e612062565b905060008151116120ae57604051806020016040528060008152506120d9565b806120b88461257e565b6040516020016120c9929190613347565b6040516020818303038152906040525b915050919050565b60007f01ffc9a7000000000000000000000000000000000000000000000000000000007bffffffffffffffffffffffffffffffffffffffffffffffffffffffff1916827bffffffffffffffffffffffffffffffffffffffffffffffffffffffff1916149050919050565b61215683838361272b565b600073ffffffffffffffffffffffffffffffffffffffff168373ffffffffffffffffffffffffffffffffffffffff1614156121995761219481612730565b6121d8565b8173ffffffffffffffffffffffffffffffffffffffff168373ffffffffffffffffffffffffffffffffffffffff16146121d7576121d68382612779565b5b5b600073ffffffffffffffffffffffffffffffffffffffff168273ffffffffffffffffffffffffffffffffffffffff16141561221b57612216816128e6565b61225a565b8273ffffffffffffffffffffffffffffffffffffffff168273ffffffffffffffffffffffffffffffffffffffff1614612259576122588282612a29565b5b5b505050565b505050565b600061226f82610bb3565b905061227d81600084611cfb565b612288600083611275565b6001600360008373ffffffffffffffffffffffffffffffffffffffff1673ffffffffffffffffffffffffffffffffffffffff16815260200190815260200160002060008282546122d89190613830565b925050819055506002600083815260200190815260200160002060006101000a81549073ffffffffffffffffffffffffffffffffffffffff021916905581600073ffffffffffffffffffffffffffffffffffffffff168273ffffffffffffffffffffffffffffffffffffffff167fddf252ad1be2c89b69c2b068fc378daa952ba7f163c4a11628f55a4df523b3ef60405160405180910390a461237d81600084611d9b565b5050565b600073ffffffffffffffffffffffffffffffffffffffff168273ffffffffffffffffffffffffffffffffffffffff1614156123f1576040517f08c379a00000000000000000000000000000000000000000000000000000000081526004016123e89061356f565b60405180910390fd5b6123fa81611c8f565b1561243a576040517f08c379a00000000000000000000000000000000000000000000000000000000081526004016124319061348f565b60405180910390fd5b61244660008383611cfb565b6001600360008473ffffffffffffffffffffffffffffffffffffffff1673ffffffffffffffffffffffffffffffffffffffff1681526020019081526020016000206000828254612496919061374f565b92505081905550816002600083815260200190815260200160002060006101000a81548173ffffffffffffffffffffffffffffffffffffffff021916908373ffffffffffffffffffffffffffffffffffffffff160217905550808273ffffffffffffffffffffffffffffffffffffffff16600073ffffffffffffffffffffffffffffffffffffffff167fddf252ad1be2c89b69c2b068fc378daa952ba7f163c4a11628f55a4df523b3ef60405160405180910390a461255760008383611d9b565b5050565b6000808273ffffffffffffffffffffffffffffffffffffffff163b119050919050565b606060008214156125c6576040518060400160405280600181526020017f30000000000000000000000000000000000000000000000000000000000000008152509050612726565b600082905060005b600082146125f85780806125e19061397d565b915050600a826125f191906137a5565b91506125ce565b60008167ffffffffffffffff81111561263a577f4e487b7100000000000000000000000000000000000000000000000000000000600052604160045260246000fd5b6040519080825280601f01601f19166020018201604052801561266c5781602001600182028036833780820191505090505b5090505b6000851461271f576001826126859190613830565b9150600a8561269491906139c6565b60306126a0919061374f565b60f81b8183815181106126dc577f4e487b7100000000000000000000000000000000000000000000000000000000600052603260045260246000fd5b60200101907effffffffffffffffffffffffffffffffffffffffffffffffffffffffffffff1916908160001a905350600a8561271891906137a5565b9450612670565b8093505050505b919050565b505050565b6008805490506009600083815260200190815260200160002081905550600881908060018154018082558091505060019003906000526020600020016000909190919091505550565b6000600161278684610c65565b6127909190613830565b9050600060076000848152602001908152602001600020549050818114612875576000600660008673ffffffffffffffffffffffffffffffffffffffff1673ffffffffffffffffffffffffffffffffffffffff168152602001908152602001600020600084815260200190815260200160002054905080600660008773ffffffffffffffffffffffffffffffffffffffff1673ffffffffffffffffffffffffffffffffffffffff168152602001908152602001600020600084815260200190815260200160002081905550816007600083815260200190815260200160002081905550505b6007600084815260200190815260200160002060009055600660008573ffffffffffffffffffffffffffffffffffffffff1673ffffffffffffffffffffffffffffffffffffffff16815260200190815260200160002060008381526020019081526020016000206000905550505050565b600060016008805490506128fa9190613830565b9050600060096000848152602001908152602001600020549050600060088381548110612950577f4e487b7100000000000000000000000000000000000000000000000000000000600052603260045260246000fd5b906000526020600020015490508060088381548110612998577f4e487b7100000000000000000000000000000000000000000000000000000000600052603260045260246000fd5b906000526020600020018190555081600960008381526020019081526020016000208190555060096000858152602001908152602001600020600090556008805480612a0d577f4e487b7100000000000000000000000000000000000000000000000000000000600052603160045260246000fd5b6001900381819060005260206000200160009055905550505050565b6000612a3483610c65565b905081600660008573ffffffffffffffffffffffffffffffffffffffff1673ffffffffffffffffffffffffffffffffffffffff168152602001908152602001600020600083815260200190815260200160002081905550806007600084815260200190815260200160002081905550505050565b6040518060800160405280600081526020016000815260200160008152602001600081525090565b828054612adc9061391a565b90600052602060002090601f016020900481019282612afe5760008555612b45565b82601f10612b1757805160ff1916838001178555612b45565b82800160010185558215612b45579182015b82811115612b44578251825591602001919060010190612b29565b5b509050612b529190612b96565b5090565b508054612b629061391a565b6000825580601f10612b745750612b93565b601f016020900490600052602060002090810190612b929190612b96565b5b50565b5b80821115612baf576000816000905550600101612b97565b5090565b6000612bc6612bc1846136aa565b613685565b905082815260208101848484011115612bde57600080fd5b612be98482856138d8565b509392505050565b6000612c04612bff846136db565b613685565b905082815260208101848484011115612c1c57600080fd5b612c278482856138d8565b509392505050565b600081359050612c3e81613f48565b92915050565b600081359050612c5381613f5f565b92915050565b600081359050612c6881613f76565b92915050565b600081519050612c7d81613f76565b92915050565b600082601f830112612c9457600080fd5b8135612ca4848260208601612bb3565b91505092915050565b600082601f830112612cbe57600080fd5b8135612cce848260208601612bf1565b91505092915050565b600081359050612ce681613f8d565b92915050565b600060208284031215612cfe57600080fd5b6000612d0c84828501612c2f565b91505092915050565b60008060408385031215612d2857600080fd5b6000612d3685828601612c2f565b9250506020612d4785828601612c2f565b9150509250929050565b600080600060608486031215612d6657600080fd5b6000612d7486828701612c2f565b9350506020612d8586828701612c2f565b9250506040612d9686828701612cd7565b9150509250925092565b60008060008060808587031215612db657600080fd5b6000612dc487828801612c2f565b9450506020612dd587828801612c2f565b9350506040612de687828801612cd7565b925050606085013567ffffffffffffffff811115612e0357600080fd5b612e0f87828801612c83565b91505092959194509250565b60008060408385031215612e2e57600080fd5b6000612e3c85828601612c2f565b9250506020612e4d85828601612c44565b9150509250929050565b60008060408385031215612e6a57600080fd5b6000612e7885828601612c2f565b9250506020612e8985828601612cd7565b9150509250929050565b600060208284031215612ea557600080fd5b6000612eb384828501612c59565b91505092915050565b600060208284031215612ece57600080fd5b6000612edc84828501612c6e565b91505092915050565b600060208284031215612ef757600080fd5b6000612f0584828501612cd7565b91505092915050565b600080600080600060a08688031215612f2657600080fd5b6000612f3488828901612cd7565b9550506020612f4588828901612cd7565b9450506040612f5688828901612cd7565b9350506060612f6788828901612c2f565b925050608086013567ffffffffffffffff811115612f8457600080fd5b612f9088828901612cad565b9150509295509295909350565b612fa681613864565b82525050565b612fb581613876565b82525050565b6000612fc68261370c565b612fd08185613722565b9350612fe08185602086016138e7565b612fe981613ab3565b840191505092915050565b6000612fff82613717565b6130098185613733565b93506130198185602086016138e7565b61302281613ab3565b840191505092915050565b600061303882613717565b6130428185613744565b93506130528185602086016138e7565b80840191505092915050565b600061306b602b83613733565b915061307682613ac4565b604082019050919050565b600061308e603283613733565b915061309982613b13565b604082019050919050565b60006130b1602683613733565b91506130bc82613b62565b604082019050919050565b60006130d4602583613733565b91506130df82613bb1565b604082019050919050565b60006130f7601c83613733565b915061310282613c00565b602082019050919050565b600061311a602483613733565b915061312582613c29565b604082019050919050565b600061313d601983613733565b915061314882613c78565b602082019050919050565b6000613160602983613733565b915061316b82613ca1565b604082019050919050565b6000613183602e83613733565b915061318e82613cf0565b604082019050919050565b60006131a6601483613733565b91506131b182613d3f565b602082019050919050565b60006131c9603e83613733565b91506131d482613d68565b604082019050919050565b60006131ec602083613733565b91506131f782613db7565b602082019050919050565b600061320f602083613733565b915061321a82613de0565b602082019050919050565b6000613232601883613733565b915061323d82613e09565b602082019050919050565b6000613255602183613733565b915061326082613e32565b604082019050919050565b6000613278601983613733565b915061328382613e81565b602082019050919050565b600061329b602c83613733565b91506132a682613eaa565b604082019050919050565b60006132be602e83613733565b91506132c982613ef9565b604082019050919050565b6080820160008201516132ea6000850182613329565b5060208201516132fd6020850182613329565b5060408201516133106040850182613329565b5060608201516133236060850182613329565b50505050565b613332816138ce565b82525050565b613341816138ce565b82525050565b6000613353828561302d565b915061335f828461302d565b91508190509392505050565b60006020820190506133806000830184612f9d565b92915050565b600060808201905061339b6000830187612f9d565b6133a86020830186612f9d565b6133b56040830185613338565b81810360608301526133c78184612fbb565b905095945050505050565b60006020820190506133e76000830184612fac565b92915050565b600060208201905081810360008301526134078184612ff4565b905092915050565b600060208201905081810360008301526134288161305e565b9050919050565b6000602082019050818103600083015261344881613081565b9050919050565b60006020820190508181036000830152613468816130a4565b9050919050565b60006020820190508181036000830152613488816130c7565b9050919050565b600060208201905081810360008301526134a8816130ea565b9050919050565b600060208201905081810360008301526134c88161310d565b9050919050565b600060208201905081810360008301526134e881613130565b9050919050565b6000602082019050818103600083015261350881613153565b9050919050565b6000602082019050818103600083015261352881613176565b9050919050565b6000602082019050818103600083015261354881613199565b9050919050565b60006020820190508181036000830152613568816131bc565b9050919050565b60006020820190508181036000830152613588816131df565b9050919050565b600060208201905081810360008301526135a881613202565b9050919050565b600060208201905081810360008301526135c881613225565b9050919050565b600060208201905081810360008301526135e881613248565b9050919050565b600060208201905081810360008301526136088161326b565b9050919050565b600060208201905081810360008301526136288161328e565b9050919050565b60006020820190508181036000830152613648816132b1565b9050919050565b600060808201905061366460008301846132d4565b92915050565b600060208201905061367f6000830184613338565b92915050565b600061368f6136a0565b905061369b828261394c565b919050565b6000604051905090565b600067ffffffffffffffff8211156136c5576136c4613a84565b5b6136ce82613ab3565b9050602081019050919050565b600067ffffffffffffffff8211156136f6576136f5613a84565b5b6136ff82613ab3565b9050602081019050919050565b600081519050919050565b600081519050919050565b600082825260208201905092915050565b600082825260208201905092915050565b600081905092915050565b600061375a826138ce565b9150613765836138ce565b9250827fffffffffffffffffffffffffffffffffffffffffffffffffffffffffffffffff0382111561379a576137996139f7565b5b828201905092915050565b60006137b0826138ce565b91506137bb836138ce565b9250826137cb576137ca613a26565b5b828204905092915050565b60006137e1826138ce565b91506137ec836138ce565b9250817fffffffffffffffffffffffffffffffffffffffffffffffffffffffffffffffff0483118215151615613825576138246139f7565b5b828202905092915050565b600061383b826138ce565b9150613846836138ce565b925082821015613859576138586139f7565b5b828203905092915050565b600061386f826138ae565b9050919050565b60008115159050919050565b60007fffffffff0000000000000000000000000000000000000000000000000000000082169050919050565b600073ffffffffffffffffffffffffffffffffffffffff82169050919050565b6000819050919050565b82818337600083830152505050565b60005b838110156139055780820151818401526020810190506138ea565b83811115613914576000848401525b50505050565b6000600282049050600182168061393257607f821691505b6020821081141561394657613945613a55565b5b50919050565b61395582613ab3565b810181811067ffffffffffffffff8211171561397457613973613a84565b5b80604052505050565b6000613988826138ce565b91507fffffffffffffffffffffffffffffffffffffffffffffffffffffffffffffffff8214156139bb576139ba6139f7565b5b600182019050919050565b60006139d1826138ce565b91506139dc836138ce565b9250826139ec576139eb613a26565b5b828206905092915050565b7f4e487b7100000000000000000000000000000000000000000000000000000000600052601160045260246000fd5b7f4e487b7100000000000000000000000000000000000000000000000000000000600052601260045260246000fd5b7f4e487b7100000000000000000000000000000000000000000000000000000000600052602260045260246000fd5b7f4e487b7100000000000000000000000000000000000000000000000000000000600052604160045260246000fd5b6000601f19601f8301169050919050565b7f455243373231456e756d657261626c653a206f776e657220696e646578206f7560008201527f74206f6620626f756e6473000000000000000000000000000000000000000000602082015250565b7f4552433732313a207472616e7366657220746f206e6f6e20455243373231526560008201527f63656976657220696d706c656d656e7465720000000000000000000000000000602082015250565b7f4f776e61626c653a206e6577206f776e657220697320746865207a65726f206160008201527f6464726573730000000000000000000000000000000000000000000000000000602082015250565b7f4552433732313a207472616e736665722066726f6d20696e636f72726563742060008201527f6f776e6572000000000000000000000000000000000000000000000000000000602082015250565b7f4552433732313a20746f6b656e20616c7265616479206d696e74656400000000600082015250565b7f4552433732313a207472616e7366657220746f20746865207a65726f2061646460008201527f7265737300000000000000000000000000000000000000000000000000000000602082015250565b7f4552433732313a20617070726f766520746f2063616c6c657200000000000000600082015250565b7f4552433732313a2061646472657373207a65726f206973206e6f74206120766160008201527f6c6964206f776e65720000000000000000000000000000000000000000000000602082015250565b7f45524337323155524953746f726167653a2055524920736574206f66206e6f6e60008201527f6578697374656e7420746f6b656e000000000000000000000000000000000000602082015250565b7f5472616e73666572206e6f7420616c6c6f776564000000000000000000000000600082015250565b7f4552433732313a20617070726f76652063616c6c6572206973206e6f7420746f60008201527f6b656e206f776e6572206e6f7220617070726f76656420666f7220616c6c0000602082015250565b7f4552433732313a206d696e7420746f20746865207a65726f2061646472657373600082015250565b7f4f776e61626c653a2063616c6c6572206973206e6f7420746865206f776e6572600082015250565b7f4552433732313a20696e76616c696420746f6b656e2049440000000000000000600082015250565b7f4552433732313a20617070726f76616c20746f2063757272656e74206f776e6560008201527f7200000000000000000000000000000000000000000000000000000000000000602082015250565b7f53656e646572206e6f74206f776e6572206f6620746f6b656e00000000000000600082015250565b7f455243373231456e756d657261626c653a20676c6f62616c20696e646578206f60008201527f7574206f6620626f756e64730000000000000000000000000000000000000000602082015250565b7f4552433732313a2063616c6c6572206973206e6f7420746f6b656e206f776e6560008201527f72206e6f7220617070726f766564000000000000000000000000000000000000602082015250565b613f5181613864565b8114613f5c57600080fd5b50565b613f6881613876565b8114613f7357600080fd5b50565b613f7f81613882565b8114613f8a57600080fd5b50565b613f96816138ce565b8114613fa157600080fd5b5056fea2646970667358221220f63e0ae5772b76e3d3c2815f46c7bd9af7fc714e3b2d58453b5283565cdb698364736f6c63430008040033",
  "linkReferences": {},
  "deployedLinkReferences": {}
}