{
  "_format": "hh-sol-artifact-1",
  "contractName": "WarrantyCardContract",
  "sourceName": "contracts/warranty.sol",
  "abi": [
    {
      "inputs": [
        {
          "internalType": "string",
          "name": "name",
          "type": "string"
        },
        {
          "internalType": "string",
          "name": "symbol",
          "type": "string"
        },
        {
          "internalType": "address",
          "name": "_owner",
          "type": "address"
        }
      ],
      "stateMutability": "nonpayable",
      "type": "constructor"
    },
    {
      "anonymous": false,
      "inputs": [
        {
          "indexed": true,
          "internalType": "address",
          "name": "owner",
          "type": "address"
        },
        {
          "indexed": true,
          "internalType": "address",
          "name": "approved",
          "type": "address"
        },
        {
          "indexed": true,
          "internalType": "uint256",
          "name": "tokenId",
          "type": "uint256"
        }
      ],
      "name": "Approval",
      "type": "event"
    },
    {
      "anonymous": false,
      "inputs": [
        {
          "indexed": true,
          "internalType": "address",
          "name": "owner",
          "type": "address"
        },
        {
          "indexed": true,
          "internalType": "address",
          "name": "operator",
          "type": "address"
        },
        {
          "indexed": false,
          "internalType": "bool",
          "name": "approved",
          "type": "bool"
        }
      ],
      "name": "ApprovalForAll",
      "type": "event"
    },
    {
      "anonymous": false,
      "inputs": [
        {
          "indexed": true,
          "internalType": "address",
          "name": "previousOwner",
          "type": "address"
        },
        {
          "indexed": true,
          "internalType": "address",
          "name": "newOwner",
          "type": "address"
        }
      ],
      "name": "OwnershipTransferred",
      "type": "event"
    },
    {
      "anonymous": false,
      "inputs": [
        {
          "indexed": true,
          "internalType": "address",
          "name": "from",
          "type": "address"
        },
        {
          "indexed": true,
          "internalType": "address",
          "name": "to",
          "type": "address"
        },
        {
          "indexed": true,
          "internalType": "uint256",
          "name": "tokenId",
          "type": "uint256"
        }
      ],
      "name": "Transfer",
      "type": "event"
    },
    {
      "inputs": [
        {
          "internalType": "address",
          "name": "to",
          "type": "address"
        },
        {
          "internalType": "uint256",
          "name": "tokenId",
          "type": "uint256"
        }
      ],
      "name": "approve",
      "outputs": [],
      "stateMutability": "nonpayable",
      "type": "function"
    },
    {
      "inputs": [
        {
          "internalType": "address",
          "name": "owner",
          "type": "address"
        }
      ],
      "name": "balanceOf",
      "outputs": [
        {
          "internalType": "uint256",
          "name": "",
          "type": "uint256"
        }
      ],
      "stateMutability": "view",
      "type": "function"
    },
    {
      "inputs": [
        {
          "internalType": "uint256",
          "name": "tokenId",
          "type": "uint256"
        }
      ],
      "name": "burn",
      "outputs": [],
      "stateMutability": "nonpayable",
      "type": "function"
    },
    {
      "inputs": [
        {
          "internalType": "uint256",
          "name": "tokenId",
          "type": "uint256"
        }
      ],
      "name": "getApproved",
      "outputs": [
        {
          "internalType": "address",
          "name": "",
          "type": "address"
        }
      ],
      "stateMutability": "view",
      "type": "function"
    },
    {
      "inputs": [
        {
          "internalType": "uint256",
          "name": "tokenId",
          "type": "uint256"
        }
      ],
      "name": "getWarrantyCardDetails",
      "outputs": [
        {
          "components": [
            {
              "internalType": "uint256",
              "name": "product_serial_no",
              "type": "uint256"
            },
            {
              "internalType": "uint256",
              "name": "issue_date_time",
              "type": "uint256"
            },
            {
              "internalType": "uint256",
              "name": "warranty_duration",
              "type": "uint256"
            },
            {
              "internalType": "uint256",
              "name": "no_transfers_allowed",
              "type": "uint256"
            }
          ],
          "internalType": "struct WarrantyCardContract.WarrantyCard",
          "name": "",
          "type": "tuple"
        }
      ],
      "stateMutability": "view",
      "type": "function"
    },
    {
      "inputs": [
        {
          "internalType": "uint256",
          "name": "tokenId",
          "type": "uint256"
        }
      ],
      "name": "getWarrantyCardIssueDateTime",
      "outputs": [
        {
          "internalType": "uint256",
          "name": "",
          "type": "uint256"
        }
      ],
      "stateMutability": "view",
      "type": "function"
    },
    {
      "inputs": [
        {
          "internalType": "uint256",
          "name": "tokenId",
          "type": "uint256"
        }
      ],
      "name": "getWarrantyCardNoOfTransfersAllowed",
      "outputs": [
        {
          "internalType": "uint256",
          "name": "",
          "type": "uint256"
        }
      ],
      "stateMutability": "view",
      "type": "function"
    },
    {
      "inputs": [
        {
          "internalType": "uint256",
          "name": "tokenId",
          "type": "uint256"
        }
      ],
      "name": "getWarrantyCardProductSerialNo",
      "outputs": [
        {
          "internalType": "uint256",
          "name": "",
          "type": "uint256"
        }
      ],
      "stateMutability": "view",
      "type": "function"
    },
    {
      "inputs": [
        {
          "internalType": "uint256",
          "name": "tokenId",
          "type": "uint256"
        }
      ],
      "name": "getWarrantyCardWarrantyDuration",
      "outputs": [
        {
          "internalType": "uint256",
          "name": "",
          "type": "uint256"
        }
      ],
      "stateMutability": "view",
      "type": "function"
    },
    {
      "inputs": [
        {
          "internalType": "address",
          "name": "owner",
          "type": "address"
        },
        {
          "internalType": "address",
          "name": "operator",
          "type": "address"
        }
      ],
      "name": "isApprovedForAll",
      "outputs": [
        {
          "internalType": "bool",
          "name": "",
          "type": "bool"
        }
      ],
      "stateMutability": "view",
      "type": "function"
    },
    {
      "inputs": [
        {
          "internalType": "uint256",
          "name": "tokenId",
          "type": "uint256"
        }
      ],
      "name": "isWarrantyStillApplicable",
      "outputs": [
        {
          "internalType": "bool",
          "name": "",
          "type": "bool"
        }
      ],
      "stateMutability": "view",
      "type": "function"
    },
    {
      "inputs": [
        {
          "internalType": "uint256",
          "name": "_product_serial_no",
          "type": "uint256"
        },
        {
          "internalType": "uint256",
          "name": "_warranty_duration",
          "type": "uint256"
        },
        {
          "internalType": "uint256",
          "name": "_no_transfers_allowed",
          "type": "uint256"
        },
        {
          "internalType": "address",
          "name": "to",
          "type": "address"
        },
        {
          "internalType": "string",
          "name": "tokenUri",
          "type": "string"
        }
      ],
      "name": "mintWarrantyCard",
      "outputs": [
        {
          "internalType": "uint256",
          "name": "",
          "type": "uint256"
        }
      ],
      "stateMutability": "nonpayable",
      "type": "function"
    },
    {
      "inputs": [],
      "name": "name",
      "outputs": [
        {
          "internalType": "string",
          "name": "",
          "type": "string"
        }
      ],
      "stateMutability": "view",
      "type": "function"
    },
    {
      "inputs": [],
      "name": "owner",
      "outputs": [
        {
          "internalType": "address",
          "name": "",
          "type": "address"
        }
      ],
      "stateMutability": "view",
      "type": "function"
    },
    {
      "inputs": [
        {
          "internalType": "uint256",
          "name": "tokenId",
          "type": "uint256"
        }
      ],
      "name": "ownerOf",
      "outputs": [
        {
          "internalType": "address",
          "name": "",
          "type": "address"
        }
      ],
      "stateMutability": "view",
      "type": "function"
    },
    {
      "inputs": [],
      "name": "renounceOwnership",
      "outputs": [],
      "stateMutability": "nonpayable",
      "type": "function"
    },
    {
      "inputs": [
        {
          "internalType": "address",
          "name": "from",
          "type": "address"
        },
        {
          "internalType": "address",
          "name": "to",
          "type": "address"
        },
        {
          "internalType": "uint256",
          "name": "tokenId",
          "type": "uint256"
        }
      ],
      "name": "safeTransferFrom",
      "outputs": [],
      "stateMutability": "nonpayable",
      "type": "function"
    },
    {
      "inputs": [
        {
          "internalType": "address",
          "name": "from",
          "type": "address"
        },
        {
          "internalType": "address",
          "name": "to",
          "type": "address"
        },
        {
          "internalType": "uint256",
          "name": "tokenId",
          "type": "uint256"
        },
        {
          "internalType": "bytes",
          "name": "data",
          "type": "bytes"
        }
      ],
      "name": "safeTransferFrom",
      "outputs": [],
      "stateMutability": "nonpayable",
      "type": "function"
    },
    {
      "inputs": [
        {
          "internalType": "address",
          "name": "operator",
          "type": "address"
        },
        {
          "internalType": "bool",
          "name": "approved",
          "type": "bool"
        }
      ],
      "name": "setApprovalForAll",
      "outputs": [],
      "stateMutability": "nonpayable",
      "type": "function"
    },
    {
      "inputs": [
        {
          "internalType": "bytes4",
          "name": "interfaceId",
          "type": "bytes4"
        }
      ],
      "name": "supportsInterface",
      "outputs": [
        {
          "internalType": "bool",
          "name": "",
          "type": "bool"
        }
      ],
      "stateMutability": "view",
      "type": "function"
    },
    {
      "inputs": [],
      "name": "symbol",
      "outputs": [
        {
          "internalType": "string",
          "name": "",
          "type": "string"
        }
      ],
      "stateMutability": "view",
      "type": "function"
    },
    {
      "inputs": [
        {
          "internalType": "uint256",
          "name": "index",
          "type": "uint256"
        }
      ],
      "name": "tokenByIndex",
      "outputs": [
        {
          "internalType": "uint256",
          "name": "",
          "type": "uint256"
        }
      ],
      "stateMutability": "view",
      "type": "function"
    },
    {
      "inputs": [
        {
          "internalType": "address",
          "name": "owner",
          "type": "address"
        },
        {
          "internalType": "uint256",
          "name": "index",
          "type": "uint256"
        }
      ],
      "name": "tokenOfOwnerByIndex",
      "outputs": [
        {
          "internalType": "uint256",
          "name": "",
          "type": "uint256"
        }
      ],
      "stateMutability": "view",
      "type": "function"
    },
    {
      "inputs": [
        {
          "internalType": "uint256",
          "name": "tokenId",
          "type": "uint256"
        }
      ],
      "name": "tokenURI",
      "outputs": [
        {
          "internalType": "string",
          "name": "",
          "type": "string"
        }
      ],
      "stateMutability": "view",
      "type": "function"
    },
    {
      "inputs": [],
      "name": "totalSupply",
      "outputs": [
        {
          "internalType": "uint256",
          "name": "",
          "type": "uint256"
        }
      ],
      "stateMutability": "view",
      "type": "function"
    },
    {
      "inputs": [
        {
          "internalType": "address",
          "name": "from",
          "type": "address"
        },
        {
          "internalType": "address",
          "name": "to",
          "type": "address"
        },
        {
          "internalType": "uint256",
          "name": "tokenId",
          "type": "uint256"
        }
      ],
      "name": "transferFrom",
      "outputs": [],
      "stateMutability": "nonpayable",
      "type": "function"
    },
    {
      "inputs": [
        {
          "internalType": "address",
          "name": "newOwner",
          "type": "address"
        }
      ],
      "name": "transferOwnership",
      "outputs": [],
      "stateMutability": "nonpayable",
      "type": "function"
    }
  ],
  "bytecode": "0x60806040523480156200001157600080fd5b506040516200489738038062004897833981810160405281019062000037919062000400565b8282816000908051906020019062000051929190620002c7565b5080600190805190602001906200006a929190620002c7565b5050506200008d62000081620000a760201b60201c565b620000af60201b60201c565b6200009e816200017560201b60201c565b50505062000761565b600033905090565b6000600b60009054906101000a900473ffffffffffffffffffffffffffffffffffffffff16905081600b60006101000a81548173ffffffffffffffffffffffffffffffffffffffff021916908373ffffffffffffffffffffffffffffffffffffffff1602179055508173ffffffffffffffffffffffffffffffffffffffff168173ffffffffffffffffffffffffffffffffffffffff167f8be0079c531659141344cd1fd0a4f28419497f9722a3daafe3b4186f6b6457e060405160405180910390a35050565b620001856200020c60201b60201c565b600073ffffffffffffffffffffffffffffffffffffffff168173ffffffffffffffffffffffffffffffffffffffff161415620001f8576040517f08c379a0000000000000000000000000000000000000000000000000000000008152600401620001ef90620004d6565b60405180910390fd5b6200020981620000af60201b60201c565b50565b6200021c620000a760201b60201c565b73ffffffffffffffffffffffffffffffffffffffff16620002426200029d60201b60201c565b73ffffffffffffffffffffffffffffffffffffffff16146200029b576040517f08c379a00000000000000000000000000000000000000000000000000000000081526004016200029290620004f8565b60405180910390fd5b565b6000600b60009054906101000a900473ffffffffffffffffffffffffffffffffffffffff16905090565b828054620002d590620005f4565b90600052602060002090601f016020900481019282620002f9576000855562000345565b82601f106200031457805160ff191683800117855562000345565b8280016001018555821562000345579182015b828111156200034457825182559160200191906001019062000327565b5b50905062000354919062000358565b5090565b5b808211156200037357600081600090555060010162000359565b5090565b60006200038e620003888462000543565b6200051a565b905082815260208101848484011115620003a757600080fd5b620003b4848285620005be565b509392505050565b600081519050620003cd8162000747565b92915050565b600082601f830112620003e557600080fd5b8151620003f784826020860162000377565b91505092915050565b6000806000606084860312156200041657600080fd5b600084015167ffffffffffffffff8111156200043157600080fd5b6200043f86828701620003d3565b935050602084015167ffffffffffffffff8111156200045d57600080fd5b6200046b86828701620003d3565b92505060406200047e86828701620003bc565b9150509250925092565b60006200049760268362000579565b9150620004a482620006cf565b604082019050919050565b6000620004be60208362000579565b9150620004cb826200071e565b602082019050919050565b60006020820190508181036000830152620004f18162000488565b9050919050565b600060208201905081810360008301526200051381620004af565b9050919050565b60006200052662000539565b90506200053482826200062a565b919050565b6000604051905090565b600067ffffffffffffffff8211156200056157620005606200068f565b5b6200056c82620006be565b9050602081019050919050565b600082825260208201905092915050565b600062000597826200059e565b9050919050565b600073ffffffffffffffffffffffffffffffffffffffff82169050919050565b60005b83811015620005de578082015181840152602081019050620005c1565b83811115620005ee576000848401525b50505050565b600060028204905060018216806200060d57607f821691505b6020821081141562000624576200062362000660565b5b50919050565b6200063582620006be565b810181811067ffffffffffffffff821117156200065757620006566200068f565b5b80604052505050565b7f4e487b7100000000000000000000000000000000000000000000000000000000600052602260045260246000fd5b7f4e487b7100000000000000000000000000000000000000000000000000000000600052604160045260246000fd5b6000601f19601f8301169050919050565b7f4f776e61626c653a206e6577206f776e657220697320746865207a65726f206160008201527f6464726573730000000000000000000000000000000000000000000000000000602082015250565b7f4f776e61626c653a2063616c6c6572206973206e6f7420746865206f776e6572600082015250565b62000752816200058a565b81146200075e57600080fd5b50565b61412680620007716000396000f3fe608060405234801561001057600080fd5b50600436106101a95760003560e01c80636352211e116100f9578063ab73d55011610097578063c82a5afb11610071578063c82a5afb14610518578063c87b56dd14610548578063e985e9c514610578578063f2fde38b146105a8576101a9565b8063ab73d5501461049c578063b88d4fde146104cc578063bba72639146104e8576101a9565b806380271947116100d357806380271947146104145780638da5cb5b1461044457806395d89b4114610462578063a22cb46514610480576101a9565b80636352211e146103aa57806370a08231146103da578063715018a61461040a576101a9565b806321c2c3b1116101665780632f745c59116101405780632f745c591461031257806342842e0e1461034257806342966c681461035e5780634f6ccce71461037a576101a9565b806321c2c3b11461029657806323b872dd146102c65780632534f230146102e2576101a9565b806301ffc9a7146101ae57806306fdde03146101de578063081812fc146101fc578063095ea7b31461022c57806318160ddd146102485780631c4e197814610266575b600080fd5b6101c860048036038101906101c39190612fdf565b6105c4565b6040516101d5919061351e565b60405180910390f35b6101e66105d6565b6040516101f39190613539565b60405180910390f35b61021660048036038101906102119190613031565b610668565b60405161022391906134b7565b60405180910390f35b61024660048036038101906102419190612fa3565b6106ae565b005b6102506107c6565b60405161025d91906137b6565b60405180910390f35b610280600480360381019061027b9190613031565b6107d3565b60405161028d91906137b6565b60405180910390f35b6102b060048036038101906102ab9190613031565b6108ab565b6040516102bd919061351e565b60405180910390f35b6102e060048036038101906102db9190612e9d565b61091b565b005b6102fc60048036038101906102f79190613031565b61097b565b604051610309919061379b565b60405180910390f35b61032c60048036038101906103279190612fa3565b610a89565b60405161033991906137b6565b60405180910390f35b61035c60048036038101906103579190612e9d565b610b2e565b005b61037860048036038101906103739190613031565b610b4e565b005b610394600480360381019061038f9190613031565b610baa565b6040516103a191906137b6565b60405180910390f35b6103c460048036038101906103bf9190613031565b610c41565b6040516103d191906134b7565b60405180910390f35b6103f460048036038101906103ef9190612e38565b610cf3565b60405161040191906137b6565b60405180910390f35b610412610dab565b005b61042e6004803603810190610429919061305a565b610dbf565b60405161043b91906137b6565b60405180910390f35b61044c610e0e565b60405161045991906134b7565b60405180910390f35b61046a610e38565b6040516104779190613539565b60405180910390f35b61049a60048036038101906104959190612f67565b610eca565b005b6104b660048036038101906104b19190613031565b610ee0565b6040516104c391906137b6565b60405180910390f35b6104e660048036038101906104e19190612eec565b610fb8565b005b61050260048036038101906104fd9190613031565b61101a565b60405161050f91906137b6565b60405180910390f35b610532600480360381019061052d9190613031565b6110f2565b60405161053f91906137b6565b60405180910390f35b610562600480360381019061055d9190613031565b6111ca565b60405161056f9190613539565b60405180910390f35b610592600480360381019061058d9190612e61565b6111dc565b60405161059f919061351e565b60405180910390f35b6105c260048036038101906105bd9190612e38565b611270565b005b60006105cf826112f4565b9050919050565b6060600080546105e590613a66565b80601f016020809104026020016040519081016040528092919081815260200182805461061190613a66565b801561065e5780601f106106335761010080835404028352916020019161065e565b820191906000526020600020905b81548152906001019060200180831161064157829003601f168201915b5050505050905090565b60006106738261136e565b6004600083815260200190815260200160002060009054906101000a900473ffffffffffffffffffffffffffffffffffffffff169050919050565b60006106b982610c41565b90508073ffffffffffffffffffffffffffffffffffffffff168373ffffffffffffffffffffffffffffffffffffffff16141561072a576040517f08c379a00000000000000000000000000000000000000000000000000000000081526004016107219061371b565b60405180910390fd5b8073ffffffffffffffffffffffffffffffffffffffff166107496113b9565b73ffffffffffffffffffffffffffffffffffffffff1614806107785750610777816107726113b9565b6111dc565b5b6107b7576040517f08c379a00000000000000000000000000000000000000000000000000000000081526004016107ae9061369b565b60405180910390fd5b6107c183836113c1565b505050565b6000600880549050905090565b6000806107df83610c41565b90508073ffffffffffffffffffffffffffffffffffffffff163373ffffffffffffffffffffffffffffffffffffffff16148061084d575061081e610e0e565b73ffffffffffffffffffffffffffffffffffffffff163373ffffffffffffffffffffffffffffffffffffffff16145b61088c576040517f08c379a00000000000000000000000000000000000000000000000000000000081526004016108839061373b565b60405180910390fd5b600d600084815260200190815260200160002060000154915050919050565b600080600d6000848152602001908152602001600020600101549050600062015180600d6000868152602001908152602001600020600201546108ee9190613922565b90506000429050808284610902919061389b565b1161090e576000610911565b60015b9350505050919050565b61092c6109266113b9565b8261147a565b61096b576040517f08c379a00000000000000000000000000000000000000000000000000000000081526004016109629061377b565b60405180910390fd5b61097683838361150f565b505050565b610983612bf4565b600061098e83610c41565b90508073ffffffffffffffffffffffffffffffffffffffff163373ffffffffffffffffffffffffffffffffffffffff1614806109fc57506109cd610e0e565b73ffffffffffffffffffffffffffffffffffffffff163373ffffffffffffffffffffffffffffffffffffffff16145b610a3b576040517f08c379a0000000000000000000000000000000000000000000000000000000008152600401610a329061373b565b60405180910390fd5b600d6000848152602001908152602001600020604051806080016040529081600082015481526020016001820154815260200160028201548152602001600382015481525050915050919050565b6000610a9483610cf3565b8210610ad5576040517f08c379a0000000000000000000000000000000000000000000000000000000008152600401610acc9061355b565b60405180910390fd5b600660008473ffffffffffffffffffffffffffffffffffffffff1673ffffffffffffffffffffffffffffffffffffffff168152602001908152602001600020600083815260200190815260200160002054905092915050565b610b4983838360405180602001604052806000815250610fb8565b505050565b610b5f610b596113b9565b8261147a565b610b9e576040517f08c379a0000000000000000000000000000000000000000000000000000000008152600401610b959061377b565b60405180910390fd5b610ba781611776565b50565b6000610bb46107c6565b8210610bf5576040517f08c379a0000000000000000000000000000000000000000000000000000000008152600401610bec9061375b565b60405180910390fd5b60088281548110610c2f577f4e487b7100000000000000000000000000000000000000000000000000000000600052603260045260246000fd5b90600052602060002001549050919050565b6000806002600084815260200190815260200160002060009054906101000a900473ffffffffffffffffffffffffffffffffffffffff169050600073ffffffffffffffffffffffffffffffffffffffff168173ffffffffffffffffffffffffffffffffffffffff161415610cea576040517f08c379a0000000000000000000000000000000000000000000000000000000008152600401610ce1906136fb565b60405180910390fd5b80915050919050565b60008073ffffffffffffffffffffffffffffffffffffffff168273ffffffffffffffffffffffffffffffffffffffff161415610d64576040517f08c379a0000000000000000000000000000000000000000000000000000000008152600401610d5b9061363b565b60405180910390fd5b600360008373ffffffffffffffffffffffffffffffffffffffff1673ffffffffffffffffffffffffffffffffffffffff168152602001908152602001600020549050919050565b610db36117b8565b610dbd6000611836565b565b6000610dc96117b8565b6000610dd5600c6118fc565b9050610de1600c61190a565b610deb8482611920565b610df5818461193e565b610e01878787846119b2565b8091505095945050505050565b6000600b60009054906101000a900473ffffffffffffffffffffffffffffffffffffffff16905090565b606060018054610e4790613a66565b80601f0160208091040260200160405190810160405280929190818152602001828054610e7390613a66565b8015610ec05780601f10610e9557610100808354040283529160200191610ec0565b820191906000526020600020905b815481529060010190602001808311610ea357829003601f168201915b5050505050905090565b610edc610ed56113b9565b8383611a1d565b5050565b600080610eec83610c41565b90508073ffffffffffffffffffffffffffffffffffffffff163373ffffffffffffffffffffffffffffffffffffffff161480610f5a5750610f2b610e0e565b73ffffffffffffffffffffffffffffffffffffffff163373ffffffffffffffffffffffffffffffffffffffff16145b610f99576040517f08c379a0000000000000000000000000000000000000000000000000000000008152600401610f909061373b565b60405180910390fd5b600d600084815260200190815260200160002060020154915050919050565b610fc9610fc36113b9565b8361147a565b611008576040517f08c379a0000000000000000000000000000000000000000000000000000000008152600401610fff9061377b565b60405180910390fd5b61101484848484611b8a565b50505050565b60008061102683610c41565b90508073ffffffffffffffffffffffffffffffffffffffff163373ffffffffffffffffffffffffffffffffffffffff1614806110945750611065610e0e565b73ffffffffffffffffffffffffffffffffffffffff163373ffffffffffffffffffffffffffffffffffffffff16145b6110d3576040517f08c379a00000000000000000000000000000000000000000000000000000000081526004016110ca9061373b565b60405180910390fd5b600d600084815260200190815260200160002060030154915050919050565b6000806110fe83610c41565b90508073ffffffffffffffffffffffffffffffffffffffff163373ffffffffffffffffffffffffffffffffffffffff16148061116c575061113d610e0e565b73ffffffffffffffffffffffffffffffffffffffff163373ffffffffffffffffffffffffffffffffffffffff16145b6111ab576040517f08c379a00000000000000000000000000000000000000000000000000000000081526004016111a29061373b565b60405180910390fd5b600d600084815260200190815260200160002060010154915050919050565b60606111d582611be6565b9050919050565b6000600560008473ffffffffffffffffffffffffffffffffffffffff1673ffffffffffffffffffffffffffffffffffffffff16815260200190815260200160002060008373ffffffffffffffffffffffffffffffffffffffff1673ffffffffffffffffffffffffffffffffffffffff16815260200190815260200160002060009054906101000a900460ff16905092915050565b6112786117b8565b600073ffffffffffffffffffffffffffffffffffffffff168173ffffffffffffffffffffffffffffffffffffffff1614156112e8576040517f08c379a00000000000000000000000000000000000000000000000000000000081526004016112df9061359b565b60405180910390fd5b6112f181611836565b50565b60007f780e9d63000000000000000000000000000000000000000000000000000000007bffffffffffffffffffffffffffffffffffffffffffffffffffffffff1916827bffffffffffffffffffffffffffffffffffffffffffffffffffffffff19161480611367575061136682611cf9565b5b9050919050565b61137781611ddb565b6113b6576040517f08c379a00000000000000000000000000000000000000000000000000000000081526004016113ad906136fb565b60405180910390fd5b50565b600033905090565b816004600083815260200190815260200160002060006101000a81548173ffffffffffffffffffffffffffffffffffffffff021916908373ffffffffffffffffffffffffffffffffffffffff160217905550808273ffffffffffffffffffffffffffffffffffffffff1661143483610c41565b73ffffffffffffffffffffffffffffffffffffffff167f8c5be1e5ebec7d5bd14f71427d1e84f3dd0314c0f7b2291e5b200ac8c7c3b92560405160405180910390a45050565b60008061148683610c41565b90508073ffffffffffffffffffffffffffffffffffffffff168473ffffffffffffffffffffffffffffffffffffffff1614806114c857506114c781856111dc565b5b8061150657508373ffffffffffffffffffffffffffffffffffffffff166114ee84610668565b73ffffffffffffffffffffffffffffffffffffffff16145b91505092915050565b8273ffffffffffffffffffffffffffffffffffffffff1661152f82610c41565b73ffffffffffffffffffffffffffffffffffffffff1614611585576040517f08c379a000000000000000000000000000000000000000000000000000000000815260040161157c906135bb565b60405180910390fd5b600073ffffffffffffffffffffffffffffffffffffffff168273ffffffffffffffffffffffffffffffffffffffff1614156115f5576040517f08c379a00000000000000000000000000000000000000000000000000000000081526004016115ec906135fb565b60405180910390fd5b611600838383611e47565b61160b6000826113c1565b6001600360008573ffffffffffffffffffffffffffffffffffffffff1673ffffffffffffffffffffffffffffffffffffffff168152602001908152602001600020600082825461165b919061397c565b925050819055506001600360008473ffffffffffffffffffffffffffffffffffffffff1673ffffffffffffffffffffffffffffffffffffffff16815260200190815260200160002060008282546116b2919061389b565b92505081905550816002600083815260200190815260200160002060006101000a81548173ffffffffffffffffffffffffffffffffffffffff021916908373ffffffffffffffffffffffffffffffffffffffff160217905550808273ffffffffffffffffffffffffffffffffffffffff168473ffffffffffffffffffffffffffffffffffffffff167fddf252ad1be2c89b69c2b068fc378daa952ba7f163c4a11628f55a4df523b3ef60405160405180910390a4611771838383611ee7565b505050565b61177f81611f69565b600d6000828152602001908152602001600020600080820160009055600182016000905560028201600090556003820160009055505050565b6117c06113b9565b73ffffffffffffffffffffffffffffffffffffffff166117de610e0e565b73ffffffffffffffffffffffffffffffffffffffff1614611834576040517f08c379a000000000000000000000000000000000000000000000000000000000815260040161182b906136db565b60405180910390fd5b565b6000600b60009054906101000a900473ffffffffffffffffffffffffffffffffffffffff16905081600b60006101000a81548173ffffffffffffffffffffffffffffffffffffffff021916908373ffffffffffffffffffffffffffffffffffffffff1602179055508173ffffffffffffffffffffffffffffffffffffffff168173ffffffffffffffffffffffffffffffffffffffff167f8be0079c531659141344cd1fd0a4f28419497f9722a3daafe3b4186f6b6457e060405160405180910390a35050565b600081600001549050919050565b6001816000016000828254019250508190555050565b61193a828260405180602001604052806000815250611fbc565b5050565b61194782611ddb565b611986576040517f08c379a000000000000000000000000000000000000000000000000000000000815260040161197d9061365b565b60405180910390fd5b80600a600084815260200190815260200160002090805190602001906119ad929190612c1c565b505050565b6000604051806080016040528086815260200142815260200185815260200184815250905080600d6000848152602001908152602001600020600082015181600001556020820151816001015560408201518160020155606082015181600301559050505050505050565b8173ffffffffffffffffffffffffffffffffffffffff168373ffffffffffffffffffffffffffffffffffffffff161415611a8c576040517f08c379a0000000000000000000000000000000000000000000000000000000008152600401611a839061361b565b60405180910390fd5b80600560008573ffffffffffffffffffffffffffffffffffffffff1673ffffffffffffffffffffffffffffffffffffffff16815260200190815260200160002060008473ffffffffffffffffffffffffffffffffffffffff1673ffffffffffffffffffffffffffffffffffffffff16815260200190815260200160002060006101000a81548160ff0219169083151502179055508173ffffffffffffffffffffffffffffffffffffffff168373ffffffffffffffffffffffffffffffffffffffff167f17307eab39ab6107e8899845ad3d59bd9653f200f220920489ca2b5937696c3183604051611b7d919061351e565b60405180910390a3505050565b611b9584848461150f565b611ba184848484612017565b611be0576040517f08c379a0000000000000000000000000000000000000000000000000000000008152600401611bd79061357b565b60405180910390fd5b50505050565b6060611bf18261136e565b6000600a60008481526020019081526020016000208054611c1190613a66565b80601f0160208091040260200160405190810160405280929190818152602001828054611c3d90613a66565b8015611c8a5780601f10611c5f57610100808354040283529160200191611c8a565b820191906000526020600020905b815481529060010190602001808311611c6d57829003601f168201915b505050505090506000611c9b6121ae565b9050600081511415611cb1578192505050611cf4565b600082511115611ce6578082604051602001611cce929190613493565b60405160208183030381529060405292505050611cf4565b611cef846121c5565b925050505b919050565b60007f80ac58cd000000000000000000000000000000000000000000000000000000007bffffffffffffffffffffffffffffffffffffffffffffffffffffffff1916827bffffffffffffffffffffffffffffffffffffffffffffffffffffffff19161480611dc457507f5b5e139f000000000000000000000000000000000000000000000000000000007bffffffffffffffffffffffffffffffffffffffffffffffffffffffff1916827bffffffffffffffffffffffffffffffffffffffffffffffffffffffff1916145b80611dd45750611dd38261222d565b5b9050919050565b60008073ffffffffffffffffffffffffffffffffffffffff166002600084815260200190815260200160002060009054906101000a900473ffffffffffffffffffffffffffffffffffffffff1673ffffffffffffffffffffffffffffffffffffffff1614159050919050565b611e52838383612297565b600073ffffffffffffffffffffffffffffffffffffffff168373ffffffffffffffffffffffffffffffffffffffff161480611ea357506000600d600083815260200190815260200160002060030154115b611ee2576040517f08c379a0000000000000000000000000000000000000000000000000000000008152600401611ed99061367b565b60405180910390fd5b505050565b611ef28383836123ab565b600073ffffffffffffffffffffffffffffffffffffffff168373ffffffffffffffffffffffffffffffffffffffff1614611f64576001600d600083815260200190815260200160002060030154611f49919061397c565b600d6000838152602001908152602001600020600301819055505b505050565b611f72816123b0565b6000600a60008381526020019081526020016000208054611f9290613a66565b905014611fb957600a60008281526020019081526020016000206000611fb89190612ca2565b5b50565b611fc683836124cd565b611fd36000848484612017565b612012576040517f08c379a00000000000000000000000000000000000000000000000000000000081526004016120099061357b565b60405180910390fd5b505050565b60006120388473ffffffffffffffffffffffffffffffffffffffff166126a7565b156121a1578373ffffffffffffffffffffffffffffffffffffffff1663150b7a026120616113b9565b8786866040518563ffffffff1660e01b815260040161208394939291906134d2565b602060405180830381600087803b15801561209d57600080fd5b505af19250505080156120ce57506040513d601f19601f820116820180604052508101906120cb9190613008565b60015b612151573d80600081146120fe576040519150601f19603f3d011682016040523d82523d6000602084013e612103565b606091505b50600081511415612149576040517f08c379a00000000000000000000000000000000000000000000000000000000081526004016121409061357b565b60405180910390fd5b805181602001fd5b63150b7a0260e01b7bffffffffffffffffffffffffffffffffffffffffffffffffffffffff1916817bffffffffffffffffffffffffffffffffffffffffffffffffffffffff1916149150506121a6565b600190505b949350505050565b606060405180602001604052806000815250905090565b60606121d08261136e565b60006121da6121ae565b905060008151116121fa5760405180602001604052806000815250612225565b80612204846126ca565b604051602001612215929190613493565b6040516020818303038152906040525b915050919050565b60007f01ffc9a7000000000000000000000000000000000000000000000000000000007bffffffffffffffffffffffffffffffffffffffffffffffffffffffff1916827bffffffffffffffffffffffffffffffffffffffffffffffffffffffff1916149050919050565b6122a2838383612877565b600073ffffffffffffffffffffffffffffffffffffffff168373ffffffffffffffffffffffffffffffffffffffff1614156122e5576122e08161287c565b612324565b8173ffffffffffffffffffffffffffffffffffffffff168373ffffffffffffffffffffffffffffffffffffffff16146123235761232283826128c5565b5b5b600073ffffffffffffffffffffffffffffffffffffffff168273ffffffffffffffffffffffffffffffffffffffff1614156123675761236281612a32565b6123a6565b8273ffffffffffffffffffffffffffffffffffffffff168273ffffffffffffffffffffffffffffffffffffffff16146123a5576123a48282612b75565b5b5b505050565b505050565b60006123bb82610c41565b90506123c981600084611e47565b6123d46000836113c1565b6001600360008373ffffffffffffffffffffffffffffffffffffffff1673ffffffffffffffffffffffffffffffffffffffff1681526020019081526020016000206000828254612424919061397c565b925050819055506002600083815260200190815260200160002060006101000a81549073ffffffffffffffffffffffffffffffffffffffff021916905581600073ffffffffffffffffffffffffffffffffffffffff168273ffffffffffffffffffffffffffffffffffffffff167fddf252ad1be2c89b69c2b068fc378daa952ba7f163c4a11628f55a4df523b3ef60405160405180910390a46124c981600084611ee7565b5050565b600073ffffffffffffffffffffffffffffffffffffffff168273ffffffffffffffffffffffffffffffffffffffff16141561253d576040517f08c379a0000000000000000000000000000000000000000000000000000000008152600401612534906136bb565b60405180910390fd5b61254681611ddb565b15612586576040517f08c379a000000000000000000000000000000000000000000000000000000000815260040161257d906135db565b60405180910390fd5b61259260008383611e47565b6001600360008473ffffffffffffffffffffffffffffffffffffffff1673ffffffffffffffffffffffffffffffffffffffff16815260200190815260200160002060008282546125e2919061389b565b92505081905550816002600083815260200190815260200160002060006101000a81548173ffffffffffffffffffffffffffffffffffffffff021916908373ffffffffffffffffffffffffffffffffffffffff160217905550808273ffffffffffffffffffffffffffffffffffffffff16600073ffffffffffffffffffffffffffffffffffffffff167fddf252ad1be2c89b69c2b068fc378daa952ba7f163c4a11628f55a4df523b3ef60405160405180910390a46126a360008383611ee7565b5050565b6000808273ffffffffffffffffffffffffffffffffffffffff163b119050919050565b60606000821415612712576040518060400160405280600181526020017f30000000000000000000000000000000000000000000000000000000000000008152509050612872565b600082905060005b6000821461274457808061272d90613ac9565b915050600a8261273d91906138f1565b915061271a565b60008167ffffffffffffffff811115612786577f4e487b7100000000000000000000000000000000000000000000000000000000600052604160045260246000fd5b6040519080825280601f01601f1916602001820160405280156127b85781602001600182028036833780820191505090505b5090505b6000851461286b576001826127d1919061397c565b9150600a856127e09190613b12565b60306127ec919061389b565b60f81b818381518110612828577f4e487b7100000000000000000000000000000000000000000000000000000000600052603260045260246000fd5b60200101907effffffffffffffffffffffffffffffffffffffffffffffffffffffffffffff1916908160001a905350600a8561286491906138f1565b94506127bc565b8093505050505b919050565b505050565b6008805490506009600083815260200190815260200160002081905550600881908060018154018082558091505060019003906000526020600020016000909190919091505550565b600060016128d284610cf3565b6128dc919061397c565b90506000600760008481526020019081526020016000205490508181146129c1576000600660008673ffffffffffffffffffffffffffffffffffffffff1673ffffffffffffffffffffffffffffffffffffffff168152602001908152602001600020600084815260200190815260200160002054905080600660008773ffffffffffffffffffffffffffffffffffffffff1673ffffffffffffffffffffffffffffffffffffffff168152602001908152602001600020600084815260200190815260200160002081905550816007600083815260200190815260200160002081905550505b6007600084815260200190815260200160002060009055600660008573ffffffffffffffffffffffffffffffffffffffff1673ffffffffffffffffffffffffffffffffffffffff16815260200190815260200160002060008381526020019081526020016000206000905550505050565b60006001600880549050612a46919061397c565b9050600060096000848152602001908152602001600020549050600060088381548110612a9c577f4e487b7100000000000000000000000000000000000000000000000000000000600052603260045260246000fd5b906000526020600020015490508060088381548110612ae4577f4e487b7100000000000000000000000000000000000000000000000000000000600052603260045260246000fd5b906000526020600020018190555081600960008381526020019081526020016000208190555060096000858152602001908152602001600020600090556008805480612b59577f4e487b7100000000000000000000000000000000000000000000000000000000600052603160045260246000fd5b6001900381819060005260206000200160009055905550505050565b6000612b8083610cf3565b905081600660008573ffffffffffffffffffffffffffffffffffffffff1673ffffffffffffffffffffffffffffffffffffffff168152602001908152602001600020600083815260200190815260200160002081905550806007600084815260200190815260200160002081905550505050565b6040518060800160405280600081526020016000815260200160008152602001600081525090565b828054612c2890613a66565b90600052602060002090601f016020900481019282612c4a5760008555612c91565b82601f10612c6357805160ff1916838001178555612c91565b82800160010185558215612c91579182015b82811115612c90578251825591602001919060010190612c75565b5b509050612c9e9190612ce2565b5090565b508054612cae90613a66565b6000825580601f10612cc05750612cdf565b601f016020900490600052602060002090810190612cde9190612ce2565b5b50565b5b80821115612cfb576000816000905550600101612ce3565b5090565b6000612d12612d0d846137f6565b6137d1565b905082815260208101848484011115612d2a57600080fd5b612d35848285613a24565b509392505050565b6000612d50612d4b84613827565b6137d1565b905082815260208101848484011115612d6857600080fd5b612d73848285613a24565b509392505050565b600081359050612d8a81614094565b92915050565b600081359050612d9f816140ab565b92915050565b600081359050612db4816140c2565b92915050565b600081519050612dc9816140c2565b92915050565b600082601f830112612de057600080fd5b8135612df0848260208601612cff565b91505092915050565b600082601f830112612e0a57600080fd5b8135612e1a848260208601612d3d565b91505092915050565b600081359050612e32816140d9565b92915050565b600060208284031215612e4a57600080fd5b6000612e5884828501612d7b565b91505092915050565b60008060408385031215612e7457600080fd5b6000612e8285828601612d7b565b9250506020612e9385828601612d7b565b9150509250929050565b600080600060608486031215612eb257600080fd5b6000612ec086828701612d7b565b9350506020612ed186828701612d7b565b9250506040612ee286828701612e23565b9150509250925092565b60008060008060808587031215612f0257600080fd5b6000612f1087828801612d7b565b9450506020612f2187828801612d7b565b9350506040612f3287828801612e23565b925050606085013567ffffffffffffffff811115612f4f57600080fd5b612f5b87828801612dcf565b91505092959194509250565b60008060408385031215612f7a57600080fd5b6000612f8885828601612d7b565b9250506020612f9985828601612d90565b9150509250929050565b60008060408385031215612fb657600080fd5b6000612fc485828601612d7b565b9250506020612fd585828601612e23565b9150509250929050565b600060208284031215612ff157600080fd5b6000612fff84828501612da5565b91505092915050565b60006020828403121561301a57600080fd5b600061302884828501612dba565b91505092915050565b60006020828403121561304357600080fd5b600061305184828501612e23565b91505092915050565b600080600080600060a0868803121561307257600080fd5b600061308088828901612e23565b955050602061309188828901612e23565b94505060406130a288828901612e23565b93505060606130b388828901612d7b565b925050608086013567ffffffffffffffff8111156130d057600080fd5b6130dc88828901612df9565b9150509295509295909350565b6130f2816139b0565b82525050565b613101816139c2565b82525050565b600061311282613858565b61311c818561386e565b935061312c818560208601613a33565b61313581613bff565b840191505092915050565b600061314b82613863565b613155818561387f565b9350613165818560208601613a33565b61316e81613bff565b840191505092915050565b600061318482613863565b61318e8185613890565b935061319e818560208601613a33565b80840191505092915050565b60006131b7602b8361387f565b91506131c282613c10565b604082019050919050565b60006131da60328361387f565b91506131e582613c5f565b604082019050919050565b60006131fd60268361387f565b915061320882613cae565b604082019050919050565b600061322060258361387f565b915061322b82613cfd565b604082019050919050565b6000613243601c8361387f565b915061324e82613d4c565b602082019050919050565b600061326660248361387f565b915061327182613d75565b604082019050919050565b600061328960198361387f565b915061329482613dc4565b602082019050919050565b60006132ac60298361387f565b91506132b782613ded565b604082019050919050565b60006132cf602e8361387f565b91506132da82613e3c565b604082019050919050565b60006132f260148361387f565b91506132fd82613e8b565b602082019050919050565b6000613315603e8361387f565b915061332082613eb4565b604082019050919050565b600061333860208361387f565b915061334382613f03565b602082019050919050565b600061335b60208361387f565b915061336682613f2c565b602082019050919050565b600061337e60188361387f565b915061338982613f55565b602082019050919050565b60006133a160218361387f565b91506133ac82613f7e565b604082019050919050565b60006133c460198361387f565b91506133cf82613fcd565b602082019050919050565b60006133e7602c8361387f565b91506133f282613ff6565b604082019050919050565b600061340a602e8361387f565b915061341582614045565b604082019050919050565b6080820160008201516134366000850182613475565b5060208201516134496020850182613475565b50604082015161345c6040850182613475565b50606082015161346f6060850182613475565b50505050565b61347e81613a1a565b82525050565b61348d81613a1a565b82525050565b600061349f8285613179565b91506134ab8284613179565b91508190509392505050565b60006020820190506134cc60008301846130e9565b92915050565b60006080820190506134e760008301876130e9565b6134f460208301866130e9565b6135016040830185613484565b81810360608301526135138184613107565b905095945050505050565b600060208201905061353360008301846130f8565b92915050565b600060208201905081810360008301526135538184613140565b905092915050565b60006020820190508181036000830152613574816131aa565b9050919050565b60006020820190508181036000830152613594816131cd565b9050919050565b600060208201905081810360008301526135b4816131f0565b9050919050565b600060208201905081810360008301526135d481613213565b9050919050565b600060208201905081810360008301526135f481613236565b9050919050565b6000602082019050818103600083015261361481613259565b9050919050565b600060208201905081810360008301526136348161327c565b9050919050565b600060208201905081810360008301526136548161329f565b9050919050565b60006020820190508181036000830152613674816132c2565b9050919050565b60006020820190508181036000830152613694816132e5565b9050919050565b600060208201905081810360008301526136b481613308565b9050919050565b600060208201905081810360008301526136d48161332b565b9050919050565b600060208201905081810360008301526136f48161334e565b9050919050565b6000602082019050818103600083015261371481613371565b9050919050565b6000602082019050818103600083015261373481613394565b9050919050565b60006020820190508181036000830152613754816133b7565b9050919050565b60006020820190508181036000830152613774816133da565b9050919050565b60006020820190508181036000830152613794816133fd565b9050919050565b60006080820190506137b06000830184613420565b92915050565b60006020820190506137cb6000830184613484565b92915050565b60006137db6137ec565b90506137e78282613a98565b919050565b6000604051905090565b600067ffffffffffffffff82111561381157613810613bd0565b5b61381a82613bff565b9050602081019050919050565b600067ffffffffffffffff82111561384257613841613bd0565b5b61384b82613bff565b9050602081019050919050565b600081519050919050565b600081519050919050565b600082825260208201905092915050565b600082825260208201905092915050565b600081905092915050565b60006138a682613a1a565b91506138b183613a1a565b9250827fffffffffffffffffffffffffffffffffffffffffffffffffffffffffffffffff038211156138e6576138e5613b43565b5b828201905092915050565b60006138fc82613a1a565b915061390783613a1a565b92508261391757613916613b72565b5b828204905092915050565b600061392d82613a1a565b915061393883613a1a565b9250817fffffffffffffffffffffffffffffffffffffffffffffffffffffffffffffffff048311821515161561397157613970613b43565b5b828202905092915050565b600061398782613a1a565b915061399283613a1a565b9250828210156139a5576139a4613b43565b5b828203905092915050565b60006139bb826139fa565b9050919050565b60008115159050919050565b60007fffffffff0000000000000000000000000000000000000000000000000000000082169050919050565b600073ffffffffffffffffffffffffffffffffffffffff82169050919050565b6000819050919050565b82818337600083830152505050565b60005b83811015613a51578082015181840152602081019050613a36565b83811115613a60576000848401525b50505050565b60006002820490506001821680613a7e57607f821691505b60208210811415613a9257613a91613ba1565b5b50919050565b613aa182613bff565b810181811067ffffffffffffffff82111715613ac057613abf613bd0565b5b80604052505050565b6000613ad482613a1a565b91507fffffffffffffffffffffffffffffffffffffffffffffffffffffffffffffffff821415613b0757613b06613b43565b5b600182019050919050565b6000613b1d82613a1a565b9150613b2883613a1a565b925082613b3857613b37613b72565b5b828206905092915050565b7f4e487b7100000000000000000000000000000000000000000000000000000000600052601160045260246000fd5b7f4e487b7100000000000000000000000000000000000000000000000000000000600052601260045260246000fd5b7f4e487b7100000000000000000000000000000000000000000000000000000000600052602260045260246000fd5b7f4e487b7100000000000000000000000000000000000000000000000000000000600052604160045260246000fd5b6000601f19601f8301169050919050565b7f455243373231456e756d657261626c653a206f776e657220696e646578206f7560008201527f74206f6620626f756e6473000000000000000000000000000000000000000000602082015250565b7f4552433732313a207472616e7366657220746f206e6f6e20455243373231526560008201527f63656976657220696d706c656d656e7465720000000000000000000000000000602082015250565b7f4f776e61626c653a206e6577206f776e657220697320746865207a65726f206160008201527f6464726573730000000000000000000000000000000000000000000000000000602082015250565b7f4552433732313a207472616e736665722066726f6d20696e636f72726563742060008201527f6f776e6572000000000000000000000000000000000000000000000000000000602082015250565b7f4552433732313a20746f6b656e20616c7265616479206d696e74656400000000600082015250565b7f4552433732313a207472616e7366657220746f20746865207a65726f2061646460008201527f7265737300000000000000000000000000000000000000000000000000000000602082015250565b7f4552433732313a20617070726f766520746f2063616c6c657200000000000000600082015250565b7f4552433732313a2061646472657373207a65726f206973206e6f74206120766160008201527f6c6964206f776e65720000000000000000000000000000000000000000000000602082015250565b7f45524337323155524953746f726167653a2055524920736574206f66206e6f6e60008201527f6578697374656e7420746f6b656e000000000000000000000000000000000000602082015250565b7f5472616e73666572206e6f7420616c6c6f776564000000000000000000000000600082015250565b7f4552433732313a20617070726f76652063616c6c6572206973206e6f7420746f60008201527f6b656e206f776e6572206e6f7220617070726f76656420666f7220616c6c0000602082015250565b7f4552433732313a206d696e7420746f20746865207a65726f2061646472657373600082015250565b7f4f776e61626c653a2063616c6c6572206973206e6f7420746865206f776e6572600082015250565b7f4552433732313a20696e76616c696420746f6b656e2049440000000000000000600082015250565b7f4552433732313a20617070726f76616c20746f2063757272656e74206f776e6560008201527f7200000000000000000000000000000000000000000000000000000000000000602082015250565b7f53656e646572206e6f74206f776e6572206f6620746f6b656e00000000000000600082015250565b7f455243373231456e756d657261626c653a20676c6f62616c20696e646578206f60008201527f7574206f6620626f756e64730000000000000000000000000000000000000000602082015250565b7f4552433732313a2063616c6c6572206973206e6f7420746f6b656e206f776e6560008201527f72206e6f7220617070726f766564000000000000000000000000000000000000602082015250565b61409d816139b0565b81146140a857600080fd5b50565b6140b4816139c2565b81146140bf57600080fd5b50565b6140cb816139ce565b81146140d657600080fd5b50565b6140e281613a1a565b81146140ed57600080fd5b5056fea264697066735822122047364daf85a38c11cdea195e15b125ba97afc72caff2d273c024fdab5c6f679d64736f6c63430008040033",
  "linkReferences": {},
  "deployedLinkReferences": {}
}