{
  "_format": "hh-sol-artifact-1",
  "contractName": "WarrantyFactory",
  "sourceName": "contracts/factory.sol",
  "abi": [
    {
      "inputs": [
        {
          "internalType": "string",
          "name": "name",
          "type": "string"
        },
        {
          "internalType": "string",
          "name": "symbol",
          "type": "string"
        }
      ],
      "name": "createNewWarrantyContract",
      "outputs": [
        {
          "internalType": "contract WarrantyCardContract",
          "name": "",
          "type": "address"
        }
      ],
      "stateMutability": "nonpayable",
      "type": "function"
    },
    {
      "inputs": [],
      "name": "getTotalContracts",
      "outputs": [
        {
          "internalType": "uint256",
          "name": "",
          "type": "uint256"
        }
      ],
      "stateMutability": "view",
      "type": "function"
    },
    {
      "inputs": [],
      "name": "getcontractofowner",
      "outputs": [
        {
          "internalType": "contract WarrantyCardContract",
          "name": "",
          "type": "address"
        }
      ],
      "stateMutability": "view",
      "type": "function"
    },
    {
      "inputs": [
        {
          "internalType": "uint256",
          "name": "",
          "type": "uint256"
        }
      ],
      "name": "ownersAddress",
      "outputs": [
        {
          "internalType": "address",
          "name": "",
          "type": "address"
        }
      ],
      "stateMutability": "view",
      "type": "function"
    }
  ],
  "bytecode": "0x608060405234801561001057600080fd5b50614f9a806100206000396000f3fe60806040523480156200001157600080fd5b5060043610620000525760003560e01c8063534860cc146200005757806374fd0c851462000079578063d2f137e414620000af578063f08a5b2914620000d1575b600080fd5b6200006162000107565b60405162000070919062000515565b60405180910390f35b620000976004803603810190620000919190620003f0565b62000114565b604051620000a6919062000490565b60405180910390f35b620000b962000154565b604051620000c89190620004ad565b60405180910390f35b620000ef6004803603810190620000e991906200037d565b620001ba565b604051620000fe9190620004ad565b60405180910390f35b6000600180549050905090565b600181815481106200012557600080fd5b906000526020600020016000915054906101000a900473ffffffffffffffffffffffffffffffffffffffff1681565b60008060003373ffffffffffffffffffffffffffffffffffffffff1673ffffffffffffffffffffffffffffffffffffffff16815260200190815260200160002060009054906101000a900473ffffffffffffffffffffffffffffffffffffffff16905090565b600080838333604051620001ce90620002e6565b620001dc93929190620004ca565b604051809103906000f080158015620001f9573d6000803e3d6000fd5b509050806000803373ffffffffffffffffffffffffffffffffffffffff1673ffffffffffffffffffffffffffffffffffffffff16815260200190815260200160002060006101000a81548173ffffffffffffffffffffffffffffffffffffffff021916908373ffffffffffffffffffffffffffffffffffffffff1602179055506001339080600181540180825580915050600190039060005260206000200160009091909190916101000a81548173ffffffffffffffffffffffffffffffffffffffff021916908373ffffffffffffffffffffffffffffffffffffffff1602179055508091505092915050565b61487c80620006e983390190565b60006200030b62000305846200055b565b62000532565b9050828152602081018484840111156200032457600080fd5b6200033184828562000613565b509392505050565b600082601f8301126200034b57600080fd5b81356200035d848260208601620002f4565b91505092915050565b6000813590506200037781620006ce565b92915050565b600080604083850312156200039157600080fd5b600083013567ffffffffffffffff811115620003ac57600080fd5b620003ba8582860162000339565b925050602083013567ffffffffffffffff811115620003d857600080fd5b620003e68582860162000339565b9150509250929050565b6000602082840312156200040357600080fd5b6000620004138482850162000366565b91505092915050565b6200042781620005ad565b82525050565b6200043881620005eb565b82525050565b60006200044b8262000591565b6200045781856200059c565b93506200046981856020860162000622565b6200047481620006bd565b840191505092915050565b6200048a81620005e1565b82525050565b6000602082019050620004a760008301846200041c565b92915050565b6000602082019050620004c460008301846200042d565b92915050565b60006060820190508181036000830152620004e681866200043e565b90508181036020830152620004fc81856200043e565b90506200050d60408301846200041c565b949350505050565b60006020820190506200052c60008301846200047f565b92915050565b60006200053e62000551565b90506200054c828262000658565b919050565b6000604051905090565b600067ffffffffffffffff8211156200057957620005786200068e565b5b6200058482620006bd565b9050602081019050919050565b600081519050919050565b600082825260208201905092915050565b6000620005ba82620005c1565b9050919050565b600073ffffffffffffffffffffffffffffffffffffffff82169050919050565b6000819050919050565b6000620005f882620005ff565b9050919050565b60006200060c82620005c1565b9050919050565b82818337600083830152505050565b60005b838110156200064257808201518184015260208101905062000625565b8381111562000652576000848401525b50505050565b6200066382620006bd565b810181811067ffffffffffffffff821117156200068557620006846200068e565b5b80604052505050565b7f4e487b7100000000000000000000000000000000000000000000000000000000600052604160045260246000fd5b6000601f19601f8301169050919050565b620006d981620005e1565b8114620006e557600080fd5b5056fe60806040523480156200001157600080fd5b506040516200487c3803806200487c833981810160405281019062000037919062000400565b8282816000908051906020019062000051929190620002c7565b5080600190805190602001906200006a929190620002c7565b5050506200008d62000081620000a760201b60201c565b620000af60201b60201c565b6200009e816200017560201b60201c565b50505062000761565b600033905090565b6000600b60009054906101000a900473ffffffffffffffffffffffffffffffffffffffff16905081600b60006101000a81548173ffffffffffffffffffffffffffffffffffffffff021916908373ffffffffffffffffffffffffffffffffffffffff1602179055508173ffffffffffffffffffffffffffffffffffffffff168173ffffffffffffffffffffffffffffffffffffffff167f8be0079c531659141344cd1fd0a4f28419497f9722a3daafe3b4186f6b6457e060405160405180910390a35050565b620001856200020c60201b60201c565b600073ffffffffffffffffffffffffffffffffffffffff168173ffffffffffffffffffffffffffffffffffffffff161415620001f8576040517f08c379a0000000000000000000000000000000000000000000000000000000008152600401620001ef90620004d6565b60405180910390fd5b6200020981620000af60201b60201c565b50565b6200021c620000a760201b60201c565b73ffffffffffffffffffffffffffffffffffffffff16620002426200029d60201b60201c565b73ffffffffffffffffffffffffffffffffffffffff16146200029b576040517f08c379a00000000000000000000000000000000000000000000000000000000081526004016200029290620004f8565b60405180910390fd5b565b6000600b60009054906101000a900473ffffffffffffffffffffffffffffffffffffffff16905090565b828054620002d590620005f4565b90600052602060002090601f016020900481019282620002f9576000855562000345565b82601f106200031457805160ff191683800117855562000345565b8280016001018555821562000345579182015b828111156200034457825182559160200191906001019062000327565b5b50905062000354919062000358565b5090565b5b808211156200037357600081600090555060010162000359565b5090565b60006200038e620003888462000543565b6200051a565b905082815260208101848484011115620003a757600080fd5b620003b4848285620005be565b509392505050565b600081519050620003cd8162000747565b92915050565b600082601f830112620003e557600080fd5b8151620003f784826020860162000377565b91505092915050565b6000806000606084860312156200041657600080fd5b600084015167ffffffffffffffff8111156200043157600080fd5b6200043f86828701620003d3565b935050602084015167ffffffffffffffff8111156200045d57600080fd5b6200046b86828701620003d3565b92505060406200047e86828701620003bc565b9150509250925092565b60006200049760268362000579565b9150620004a482620006cf565b604082019050919050565b6000620004be60208362000579565b9150620004cb826200071e565b602082019050919050565b60006020820190508181036000830152620004f18162000488565b9050919050565b600060208201905081810360008301526200051381620004af565b9050919050565b60006200052662000539565b90506200053482826200062a565b919050565b6000604051905090565b600067ffffffffffffffff8211156200056157620005606200068f565b5b6200056c82620006be565b9050602081019050919050565b600082825260208201905092915050565b600062000597826200059e565b9050919050565b600073ffffffffffffffffffffffffffffffffffffffff82169050919050565b60005b83811015620005de578082015181840152602081019050620005c1565b83811115620005ee576000848401525b50505050565b600060028204905060018216806200060d57607f821691505b6020821081141562000624576200062362000660565b5b50919050565b6200063582620006be565b810181811067ffffffffffffffff821117156200065757620006566200068f565b5b80604052505050565b7f4e487b7100000000000000000000000000000000000000000000000000000000600052602260045260246000fd5b7f4e487b7100000000000000000000000000000000000000000000000000000000600052604160045260246000fd5b6000601f19601f8301169050919050565b7f4f776e61626c653a206e6577206f776e657220697320746865207a65726f206160008201527f6464726573730000000000000000000000000000000000000000000000000000602082015250565b7f4f776e61626c653a2063616c6c6572206973206e6f7420746865206f776e6572600082015250565b62000752816200058a565b81146200075e57600080fd5b50565b61410b80620007716000396000f3fe608060405234801561001057600080fd5b50600436106101a95760003560e01c80636352211e116100f9578063ab73d55011610097578063c82a5afb11610071578063c82a5afb14610504578063c87b56dd14610534578063e985e9c514610564578063f2fde38b14610594576101a9565b8063ab73d55014610488578063b88d4fde146104b8578063bba72639146104d4576101a9565b806380271947116100d357806380271947146104145780638da5cb5b1461043057806395d89b411461044e578063a22cb4651461046c576101a9565b80636352211e146103aa57806370a08231146103da578063715018a61461040a576101a9565b806321c2c3b1116101665780632f745c59116101405780632f745c591461031257806342842e0e1461034257806342966c681461035e5780634f6ccce71461037a576101a9565b806321c2c3b11461029657806323b872dd146102c65780632534f230146102e2576101a9565b806301ffc9a7146101ae57806306fdde03146101de578063081812fc146101fc578063095ea7b31461022c57806318160ddd146102485780631c4e197814610266575b600080fd5b6101c860048036038101906101c39190612fc4565b6105b0565b6040516101d59190613503565b60405180910390f35b6101e66105c2565b6040516101f3919061351e565b60405180910390f35b61021660048036038101906102119190613016565b610654565b604051610223919061349c565b60405180910390f35b61024660048036038101906102419190612f88565b61069a565b005b6102506107b2565b60405161025d919061379b565b60405180910390f35b610280600480360381019061027b9190613016565b6107bf565b60405161028d919061379b565b60405180910390f35b6102b060048036038101906102ab9190613016565b610897565b6040516102bd9190613503565b60405180910390f35b6102e060048036038101906102db9190612e82565b610907565b005b6102fc60048036038101906102f79190613016565b610967565b6040516103099190613780565b60405180910390f35b61032c60048036038101906103279190612f88565b610a75565b604051610339919061379b565b60405180910390f35b61035c60048036038101906103579190612e82565b610b1a565b005b61037860048036038101906103739190613016565b610b3a565b005b610394600480360381019061038f9190613016565b610b96565b6040516103a1919061379b565b60405180910390f35b6103c460048036038101906103bf9190613016565b610c2d565b6040516103d1919061349c565b60405180910390f35b6103f460048036038101906103ef9190612e1d565b610cdf565b604051610401919061379b565b60405180910390f35b610412610d97565b005b61042e6004803603810190610429919061303f565b610dab565b005b610438610df3565b604051610445919061349c565b60405180910390f35b610456610e1d565b604051610463919061351e565b60405180910390f35b61048660048036038101906104819190612f4c565b610eaf565b005b6104a2600480360381019061049d9190613016565b610ec5565b6040516104af919061379b565b60405180910390f35b6104d260048036038101906104cd9190612ed1565b610f9d565b005b6104ee60048036038101906104e99190613016565b610fff565b6040516104fb919061379b565b60405180910390f35b61051e60048036038101906105199190613016565b6110d7565b60405161052b919061379b565b60405180910390f35b61054e60048036038101906105499190613016565b6111af565b60405161055b919061351e565b60405180910390f35b61057e60048036038101906105799190612e46565b6111c1565b60405161058b9190613503565b60405180910390f35b6105ae60048036038101906105a99190612e1d565b611255565b005b60006105bb826112d9565b9050919050565b6060600080546105d190613a4b565b80601f01602080910402602001604051908101604052809291908181526020018280546105fd90613a4b565b801561064a5780601f1061061f5761010080835404028352916020019161064a565b820191906000526020600020905b81548152906001019060200180831161062d57829003601f168201915b5050505050905090565b600061065f82611353565b6004600083815260200190815260200160002060009054906101000a900473ffffffffffffffffffffffffffffffffffffffff169050919050565b60006106a582610c2d565b90508073ffffffffffffffffffffffffffffffffffffffff168373ffffffffffffffffffffffffffffffffffffffff161415610716576040517f08c379a000000000000000000000000000000000000000000000000000000000815260040161070d90613700565b60405180910390fd5b8073ffffffffffffffffffffffffffffffffffffffff1661073561139e565b73ffffffffffffffffffffffffffffffffffffffff16148061076457506107638161075e61139e565b6111c1565b5b6107a3576040517f08c379a000000000000000000000000000000000000000000000000000000000815260040161079a90613680565b60405180910390fd5b6107ad83836113a6565b505050565b6000600880549050905090565b6000806107cb83610c2d565b90508073ffffffffffffffffffffffffffffffffffffffff163373ffffffffffffffffffffffffffffffffffffffff161480610839575061080a610df3565b73ffffffffffffffffffffffffffffffffffffffff163373ffffffffffffffffffffffffffffffffffffffff16145b610878576040517f08c379a000000000000000000000000000000000000000000000000000000000815260040161086f90613720565b60405180910390fd5b600d600084815260200190815260200160002060000154915050919050565b600080600d6000848152602001908152602001600020600101549050600062015180600d6000868152602001908152602001600020600201546108da9190613907565b905060004290508082846108ee9190613880565b116108fa5760006108fd565b60015b9350505050919050565b61091861091261139e565b8261145f565b610957576040517f08c379a000000000000000000000000000000000000000000000000000000000815260040161094e90613760565b60405180910390fd5b6109628383836114f4565b505050565b61096f612bd9565b600061097a83610c2d565b90508073ffffffffffffffffffffffffffffffffffffffff163373ffffffffffffffffffffffffffffffffffffffff1614806109e857506109b9610df3565b73ffffffffffffffffffffffffffffffffffffffff163373ffffffffffffffffffffffffffffffffffffffff16145b610a27576040517f08c379a0000000000000000000000000000000000000000000000000000000008152600401610a1e90613720565b60405180910390fd5b600d6000848152602001908152602001600020604051806080016040529081600082015481526020016001820154815260200160028201548152602001600382015481525050915050919050565b6000610a8083610cdf565b8210610ac1576040517f08c379a0000000000000000000000000000000000000000000000000000000008152600401610ab890613540565b60405180910390fd5b600660008473ffffffffffffffffffffffffffffffffffffffff1673ffffffffffffffffffffffffffffffffffffffff168152602001908152602001600020600083815260200190815260200160002054905092915050565b610b3583838360405180602001604052806000815250610f9d565b505050565b610b4b610b4561139e565b8261145f565b610b8a576040517f08c379a0000000000000000000000000000000000000000000000000000000008152600401610b8190613760565b60405180910390fd5b610b938161175b565b50565b6000610ba06107b2565b8210610be1576040517f08c379a0000000000000000000000000000000000000000000000000000000008152600401610bd890613740565b60405180910390fd5b60088281548110610c1b577f4e487b7100000000000000000000000000000000000000000000000000000000600052603260045260246000fd5b90600052602060002001549050919050565b6000806002600084815260200190815260200160002060009054906101000a900473ffffffffffffffffffffffffffffffffffffffff169050600073ffffffffffffffffffffffffffffffffffffffff168173ffffffffffffffffffffffffffffffffffffffff161415610cd6576040517f08c379a0000000000000000000000000000000000000000000000000000000008152600401610ccd906136e0565b60405180910390fd5b80915050919050565b60008073ffffffffffffffffffffffffffffffffffffffff168273ffffffffffffffffffffffffffffffffffffffff161415610d50576040517f08c379a0000000000000000000000000000000000000000000000000000000008152600401610d4790613620565b60405180910390fd5b600360008373ffffffffffffffffffffffffffffffffffffffff1673ffffffffffffffffffffffffffffffffffffffff168152602001908152602001600020549050919050565b610d9f61179d565b610da9600061181b565b565b610db361179d565b6000610dbf600c6118e1565b9050610dcb600c6118ef565b610dd58382611905565b610ddf8183611923565b610deb86868684611997565b505050505050565b6000600b60009054906101000a900473ffffffffffffffffffffffffffffffffffffffff16905090565b606060018054610e2c90613a4b565b80601f0160208091040260200160405190810160405280929190818152602001828054610e5890613a4b565b8015610ea55780601f10610e7a57610100808354040283529160200191610ea5565b820191906000526020600020905b815481529060010190602001808311610e8857829003601f168201915b5050505050905090565b610ec1610eba61139e565b8383611a02565b5050565b600080610ed183610c2d565b90508073ffffffffffffffffffffffffffffffffffffffff163373ffffffffffffffffffffffffffffffffffffffff161480610f3f5750610f10610df3565b73ffffffffffffffffffffffffffffffffffffffff163373ffffffffffffffffffffffffffffffffffffffff16145b610f7e576040517f08c379a0000000000000000000000000000000000000000000000000000000008152600401610f7590613720565b60405180910390fd5b600d600084815260200190815260200160002060020154915050919050565b610fae610fa861139e565b8361145f565b610fed576040517f08c379a0000000000000000000000000000000000000000000000000000000008152600401610fe490613760565b60405180910390fd5b610ff984848484611b6f565b50505050565b60008061100b83610c2d565b90508073ffffffffffffffffffffffffffffffffffffffff163373ffffffffffffffffffffffffffffffffffffffff161480611079575061104a610df3565b73ffffffffffffffffffffffffffffffffffffffff163373ffffffffffffffffffffffffffffffffffffffff16145b6110b8576040517f08c379a00000000000000000000000000000000000000000000000000000000081526004016110af90613720565b60405180910390fd5b600d600084815260200190815260200160002060030154915050919050565b6000806110e383610c2d565b90508073ffffffffffffffffffffffffffffffffffffffff163373ffffffffffffffffffffffffffffffffffffffff1614806111515750611122610df3565b73ffffffffffffffffffffffffffffffffffffffff163373ffffffffffffffffffffffffffffffffffffffff16145b611190576040517f08c379a000000000000000000000000000000000000000000000000000000000815260040161118790613720565b60405180910390fd5b600d600084815260200190815260200160002060010154915050919050565b60606111ba82611bcb565b9050919050565b6000600560008473ffffffffffffffffffffffffffffffffffffffff1673ffffffffffffffffffffffffffffffffffffffff16815260200190815260200160002060008373ffffffffffffffffffffffffffffffffffffffff1673ffffffffffffffffffffffffffffffffffffffff16815260200190815260200160002060009054906101000a900460ff16905092915050565b61125d61179d565b600073ffffffffffffffffffffffffffffffffffffffff168173ffffffffffffffffffffffffffffffffffffffff1614156112cd576040517f08c379a00000000000000000000000000000000000000000000000000000000081526004016112c490613580565b60405180910390fd5b6112d68161181b565b50565b60007f780e9d63000000000000000000000000000000000000000000000000000000007bffffffffffffffffffffffffffffffffffffffffffffffffffffffff1916827bffffffffffffffffffffffffffffffffffffffffffffffffffffffff1916148061134c575061134b82611cde565b5b9050919050565b61135c81611dc0565b61139b576040517f08c379a0000000000000000000000000000000000000000000000000000000008152600401611392906136e0565b60405180910390fd5b50565b600033905090565b816004600083815260200190815260200160002060006101000a81548173ffffffffffffffffffffffffffffffffffffffff021916908373ffffffffffffffffffffffffffffffffffffffff160217905550808273ffffffffffffffffffffffffffffffffffffffff1661141983610c2d565b73ffffffffffffffffffffffffffffffffffffffff167f8c5be1e5ebec7d5bd14f71427d1e84f3dd0314c0f7b2291e5b200ac8c7c3b92560405160405180910390a45050565b60008061146b83610c2d565b90508073ffffffffffffffffffffffffffffffffffffffff168473ffffffffffffffffffffffffffffffffffffffff1614806114ad57506114ac81856111c1565b5b806114eb57508373ffffffffffffffffffffffffffffffffffffffff166114d384610654565b73ffffffffffffffffffffffffffffffffffffffff16145b91505092915050565b8273ffffffffffffffffffffffffffffffffffffffff1661151482610c2d565b73ffffffffffffffffffffffffffffffffffffffff161461156a576040517f08c379a0000000000000000000000000000000000000000000000000000000008152600401611561906135a0565b60405180910390fd5b600073ffffffffffffffffffffffffffffffffffffffff168273ffffffffffffffffffffffffffffffffffffffff1614156115da576040517f08c379a00000000000000000000000000000000000000000000000000000000081526004016115d1906135e0565b60405180910390fd5b6115e5838383611e2c565b6115f06000826113a6565b6001600360008573ffffffffffffffffffffffffffffffffffffffff1673ffffffffffffffffffffffffffffffffffffffff16815260200190815260200160002060008282546116409190613961565b925050819055506001600360008473ffffffffffffffffffffffffffffffffffffffff1673ffffffffffffffffffffffffffffffffffffffff16815260200190815260200160002060008282546116979190613880565b92505081905550816002600083815260200190815260200160002060006101000a81548173ffffffffffffffffffffffffffffffffffffffff021916908373ffffffffffffffffffffffffffffffffffffffff160217905550808273ffffffffffffffffffffffffffffffffffffffff168473ffffffffffffffffffffffffffffffffffffffff167fddf252ad1be2c89b69c2b068fc378daa952ba7f163c4a11628f55a4df523b3ef60405160405180910390a4611756838383611ecc565b505050565b61176481611f4e565b600d6000828152602001908152602001600020600080820160009055600182016000905560028201600090556003820160009055505050565b6117a561139e565b73ffffffffffffffffffffffffffffffffffffffff166117c3610df3565b73ffffffffffffffffffffffffffffffffffffffff1614611819576040517f08c379a0000000000000000000000000000000000000000000000000000000008152600401611810906136c0565b60405180910390fd5b565b6000600b60009054906101000a900473ffffffffffffffffffffffffffffffffffffffff16905081600b60006101000a81548173ffffffffffffffffffffffffffffffffffffffff021916908373ffffffffffffffffffffffffffffffffffffffff1602179055508173ffffffffffffffffffffffffffffffffffffffff168173ffffffffffffffffffffffffffffffffffffffff167f8be0079c531659141344cd1fd0a4f28419497f9722a3daafe3b4186f6b6457e060405160405180910390a35050565b600081600001549050919050565b6001816000016000828254019250508190555050565b61191f828260405180602001604052806000815250611fa1565b5050565b61192c82611dc0565b61196b576040517f08c379a000000000000000000000000000000000000000000000000000000000815260040161196290613640565b60405180910390fd5b80600a60008481526020019081526020016000209080519060200190611992929190612c01565b505050565b6000604051806080016040528086815260200142815260200185815260200184815250905080600d6000848152602001908152602001600020600082015181600001556020820151816001015560408201518160020155606082015181600301559050505050505050565b8173ffffffffffffffffffffffffffffffffffffffff168373ffffffffffffffffffffffffffffffffffffffff161415611a71576040517f08c379a0000000000000000000000000000000000000000000000000000000008152600401611a6890613600565b60405180910390fd5b80600560008573ffffffffffffffffffffffffffffffffffffffff1673ffffffffffffffffffffffffffffffffffffffff16815260200190815260200160002060008473ffffffffffffffffffffffffffffffffffffffff1673ffffffffffffffffffffffffffffffffffffffff16815260200190815260200160002060006101000a81548160ff0219169083151502179055508173ffffffffffffffffffffffffffffffffffffffff168373ffffffffffffffffffffffffffffffffffffffff167f17307eab39ab6107e8899845ad3d59bd9653f200f220920489ca2b5937696c3183604051611b629190613503565b60405180910390a3505050565b611b7a8484846114f4565b611b8684848484611ffc565b611bc5576040517f08c379a0000000000000000000000000000000000000000000000000000000008152600401611bbc90613560565b60405180910390fd5b50505050565b6060611bd682611353565b6000600a60008481526020019081526020016000208054611bf690613a4b565b80601f0160208091040260200160405190810160405280929190818152602001828054611c2290613a4b565b8015611c6f5780601f10611c4457610100808354040283529160200191611c6f565b820191906000526020600020905b815481529060010190602001808311611c5257829003601f168201915b505050505090506000611c80612193565b9050600081511415611c96578192505050611cd9565b600082511115611ccb578082604051602001611cb3929190613478565b60405160208183030381529060405292505050611cd9565b611cd4846121aa565b925050505b919050565b60007f80ac58cd000000000000000000000000000000000000000000000000000000007bffffffffffffffffffffffffffffffffffffffffffffffffffffffff1916827bffffffffffffffffffffffffffffffffffffffffffffffffffffffff19161480611da957507f5b5e139f000000000000000000000000000000000000000000000000000000007bffffffffffffffffffffffffffffffffffffffffffffffffffffffff1916827bffffffffffffffffffffffffffffffffffffffffffffffffffffffff1916145b80611db95750611db882612212565b5b9050919050565b60008073ffffffffffffffffffffffffffffffffffffffff166002600084815260200190815260200160002060009054906101000a900473ffffffffffffffffffffffffffffffffffffffff1673ffffffffffffffffffffffffffffffffffffffff1614159050919050565b611e3783838361227c565b600073ffffffffffffffffffffffffffffffffffffffff168373ffffffffffffffffffffffffffffffffffffffff161480611e8857506000600d600083815260200190815260200160002060030154115b611ec7576040517f08c379a0000000000000000000000000000000000000000000000000000000008152600401611ebe90613660565b60405180910390fd5b505050565b611ed7838383612390565b600073ffffffffffffffffffffffffffffffffffffffff168373ffffffffffffffffffffffffffffffffffffffff1614611f49576001600d600083815260200190815260200160002060030154611f2e9190613961565b600d6000838152602001908152602001600020600301819055505b505050565b611f5781612395565b6000600a60008381526020019081526020016000208054611f7790613a4b565b905014611f9e57600a60008281526020019081526020016000206000611f9d9190612c87565b5b50565b611fab83836124b2565b611fb86000848484611ffc565b611ff7576040517f08c379a0000000000000000000000000000000000000000000000000000000008152600401611fee90613560565b60405180910390fd5b505050565b600061201d8473ffffffffffffffffffffffffffffffffffffffff1661268c565b15612186578373ffffffffffffffffffffffffffffffffffffffff1663150b7a0261204661139e565b8786866040518563ffffffff1660e01b815260040161206894939291906134b7565b602060405180830381600087803b15801561208257600080fd5b505af19250505080156120b357506040513d601f19601f820116820180604052508101906120b09190612fed565b60015b612136573d80600081146120e3576040519150601f19603f3d011682016040523d82523d6000602084013e6120e8565b606091505b5060008151141561212e576040517f08c379a000000000000000000000000000000000000000000000000000000000815260040161212590613560565b60405180910390fd5b805181602001fd5b63150b7a0260e01b7bffffffffffffffffffffffffffffffffffffffffffffffffffffffff1916817bffffffffffffffffffffffffffffffffffffffffffffffffffffffff19161491505061218b565b600190505b949350505050565b606060405180602001604052806000815250905090565b60606121b582611353565b60006121bf612193565b905060008151116121df576040518060200160405280600081525061220a565b806121e9846126af565b6040516020016121fa929190613478565b6040516020818303038152906040525b915050919050565b60007f01ffc9a7000000000000000000000000000000000000000000000000000000007bffffffffffffffffffffffffffffffffffffffffffffffffffffffff1916827bffffffffffffffffffffffffffffffffffffffffffffffffffffffff1916149050919050565b61228783838361285c565b600073ffffffffffffffffffffffffffffffffffffffff168373ffffffffffffffffffffffffffffffffffffffff1614156122ca576122c581612861565b612309565b8173ffffffffffffffffffffffffffffffffffffffff168373ffffffffffffffffffffffffffffffffffffffff16146123085761230783826128aa565b5b5b600073ffffffffffffffffffffffffffffffffffffffff168273ffffffffffffffffffffffffffffffffffffffff16141561234c5761234781612a17565b61238b565b8273ffffffffffffffffffffffffffffffffffffffff168273ffffffffffffffffffffffffffffffffffffffff161461238a576123898282612b5a565b5b5b505050565b505050565b60006123a082610c2d565b90506123ae81600084611e2c565b6123b96000836113a6565b6001600360008373ffffffffffffffffffffffffffffffffffffffff1673ffffffffffffffffffffffffffffffffffffffff16815260200190815260200160002060008282546124099190613961565b925050819055506002600083815260200190815260200160002060006101000a81549073ffffffffffffffffffffffffffffffffffffffff021916905581600073ffffffffffffffffffffffffffffffffffffffff168273ffffffffffffffffffffffffffffffffffffffff167fddf252ad1be2c89b69c2b068fc378daa952ba7f163c4a11628f55a4df523b3ef60405160405180910390a46124ae81600084611ecc565b5050565b600073ffffffffffffffffffffffffffffffffffffffff168273ffffffffffffffffffffffffffffffffffffffff161415612522576040517f08c379a0000000000000000000000000000000000000000000000000000000008152600401612519906136a0565b60405180910390fd5b61252b81611dc0565b1561256b576040517f08c379a0000000000000000000000000000000000000000000000000000000008152600401612562906135c0565b60405180910390fd5b61257760008383611e2c565b6001600360008473ffffffffffffffffffffffffffffffffffffffff1673ffffffffffffffffffffffffffffffffffffffff16815260200190815260200160002060008282546125c79190613880565b92505081905550816002600083815260200190815260200160002060006101000a81548173ffffffffffffffffffffffffffffffffffffffff021916908373ffffffffffffffffffffffffffffffffffffffff160217905550808273ffffffffffffffffffffffffffffffffffffffff16600073ffffffffffffffffffffffffffffffffffffffff167fddf252ad1be2c89b69c2b068fc378daa952ba7f163c4a11628f55a4df523b3ef60405160405180910390a461268860008383611ecc565b5050565b6000808273ffffffffffffffffffffffffffffffffffffffff163b119050919050565b606060008214156126f7576040518060400160405280600181526020017f30000000000000000000000000000000000000000000000000000000000000008152509050612857565b600082905060005b6000821461272957808061271290613aae565b915050600a8261272291906138d6565b91506126ff565b60008167ffffffffffffffff81111561276b577f4e487b7100000000000000000000000000000000000000000000000000000000600052604160045260246000fd5b6040519080825280601f01601f19166020018201604052801561279d5781602001600182028036833780820191505090505b5090505b60008514612850576001826127b69190613961565b9150600a856127c59190613af7565b60306127d19190613880565b60f81b81838151811061280d577f4e487b7100000000000000000000000000000000000000000000000000000000600052603260045260246000fd5b60200101907effffffffffffffffffffffffffffffffffffffffffffffffffffffffffffff1916908160001a905350600a8561284991906138d6565b94506127a1565b8093505050505b919050565b505050565b6008805490506009600083815260200190815260200160002081905550600881908060018154018082558091505060019003906000526020600020016000909190919091505550565b600060016128b784610cdf565b6128c19190613961565b90506000600760008481526020019081526020016000205490508181146129a6576000600660008673ffffffffffffffffffffffffffffffffffffffff1673ffffffffffffffffffffffffffffffffffffffff168152602001908152602001600020600084815260200190815260200160002054905080600660008773ffffffffffffffffffffffffffffffffffffffff1673ffffffffffffffffffffffffffffffffffffffff168152602001908152602001600020600084815260200190815260200160002081905550816007600083815260200190815260200160002081905550505b6007600084815260200190815260200160002060009055600660008573ffffffffffffffffffffffffffffffffffffffff1673ffffffffffffffffffffffffffffffffffffffff16815260200190815260200160002060008381526020019081526020016000206000905550505050565b60006001600880549050612a2b9190613961565b9050600060096000848152602001908152602001600020549050600060088381548110612a81577f4e487b7100000000000000000000000000000000000000000000000000000000600052603260045260246000fd5b906000526020600020015490508060088381548110612ac9577f4e487b7100000000000000000000000000000000000000000000000000000000600052603260045260246000fd5b906000526020600020018190555081600960008381526020019081526020016000208190555060096000858152602001908152602001600020600090556008805480612b3e577f4e487b7100000000000000000000000000000000000000000000000000000000600052603160045260246000fd5b6001900381819060005260206000200160009055905550505050565b6000612b6583610cdf565b905081600660008573ffffffffffffffffffffffffffffffffffffffff1673ffffffffffffffffffffffffffffffffffffffff168152602001908152602001600020600083815260200190815260200160002081905550806007600084815260200190815260200160002081905550505050565b6040518060800160405280600081526020016000815260200160008152602001600081525090565b828054612c0d90613a4b565b90600052602060002090601f016020900481019282612c2f5760008555612c76565b82601f10612c4857805160ff1916838001178555612c76565b82800160010185558215612c76579182015b82811115612c75578251825591602001919060010190612c5a565b5b509050612c839190612cc7565b5090565b508054612c9390613a4b565b6000825580601f10612ca55750612cc4565b601f016020900490600052602060002090810190612cc39190612cc7565b5b50565b5b80821115612ce0576000816000905550600101612cc8565b5090565b6000612cf7612cf2846137db565b6137b6565b905082815260208101848484011115612d0f57600080fd5b612d1a848285613a09565b509392505050565b6000612d35612d308461380c565b6137b6565b905082815260208101848484011115612d4d57600080fd5b612d58848285613a09565b509392505050565b600081359050612d6f81614079565b92915050565b600081359050612d8481614090565b92915050565b600081359050612d99816140a7565b92915050565b600081519050612dae816140a7565b92915050565b600082601f830112612dc557600080fd5b8135612dd5848260208601612ce4565b91505092915050565b600082601f830112612def57600080fd5b8135612dff848260208601612d22565b91505092915050565b600081359050612e17816140be565b92915050565b600060208284031215612e2f57600080fd5b6000612e3d84828501612d60565b91505092915050565b60008060408385031215612e5957600080fd5b6000612e6785828601612d60565b9250506020612e7885828601612d60565b9150509250929050565b600080600060608486031215612e9757600080fd5b6000612ea586828701612d60565b9350506020612eb686828701612d60565b9250506040612ec786828701612e08565b9150509250925092565b60008060008060808587031215612ee757600080fd5b6000612ef587828801612d60565b9450506020612f0687828801612d60565b9350506040612f1787828801612e08565b925050606085013567ffffffffffffffff811115612f3457600080fd5b612f4087828801612db4565b91505092959194509250565b60008060408385031215612f5f57600080fd5b6000612f6d85828601612d60565b9250506020612f7e85828601612d75565b9150509250929050565b60008060408385031215612f9b57600080fd5b6000612fa985828601612d60565b9250506020612fba85828601612e08565b9150509250929050565b600060208284031215612fd657600080fd5b6000612fe484828501612d8a565b91505092915050565b600060208284031215612fff57600080fd5b600061300d84828501612d9f565b91505092915050565b60006020828403121561302857600080fd5b600061303684828501612e08565b91505092915050565b600080600080600060a0868803121561305757600080fd5b600061306588828901612e08565b955050602061307688828901612e08565b945050604061308788828901612e08565b935050606061309888828901612d60565b925050608086013567ffffffffffffffff8111156130b557600080fd5b6130c188828901612dde565b9150509295509295909350565b6130d781613995565b82525050565b6130e6816139a7565b82525050565b60006130f78261383d565b6131018185613853565b9350613111818560208601613a18565b61311a81613be4565b840191505092915050565b600061313082613848565b61313a8185613864565b935061314a818560208601613a18565b61315381613be4565b840191505092915050565b600061316982613848565b6131738185613875565b9350613183818560208601613a18565b80840191505092915050565b600061319c602b83613864565b91506131a782613bf5565b604082019050919050565b60006131bf603283613864565b91506131ca82613c44565b604082019050919050565b60006131e2602683613864565b91506131ed82613c93565b604082019050919050565b6000613205602583613864565b915061321082613ce2565b604082019050919050565b6000613228601c83613864565b915061323382613d31565b602082019050919050565b600061324b602483613864565b915061325682613d5a565b604082019050919050565b600061326e601983613864565b915061327982613da9565b602082019050919050565b6000613291602983613864565b915061329c82613dd2565b604082019050919050565b60006132b4602e83613864565b91506132bf82613e21565b604082019050919050565b60006132d7601483613864565b91506132e282613e70565b602082019050919050565b60006132fa603e83613864565b915061330582613e99565b604082019050919050565b600061331d602083613864565b915061332882613ee8565b602082019050919050565b6000613340602083613864565b915061334b82613f11565b602082019050919050565b6000613363601883613864565b915061336e82613f3a565b602082019050919050565b6000613386602183613864565b915061339182613f63565b604082019050919050565b60006133a9601983613864565b91506133b482613fb2565b602082019050919050565b60006133cc602c83613864565b91506133d782613fdb565b604082019050919050565b60006133ef602e83613864565b91506133fa8261402a565b604082019050919050565b60808201600082015161341b600085018261345a565b50602082015161342e602085018261345a565b506040820151613441604085018261345a565b506060820151613454606085018261345a565b50505050565b613463816139ff565b82525050565b613472816139ff565b82525050565b6000613484828561315e565b9150613490828461315e565b91508190509392505050565b60006020820190506134b160008301846130ce565b92915050565b60006080820190506134cc60008301876130ce565b6134d960208301866130ce565b6134e66040830185613469565b81810360608301526134f881846130ec565b905095945050505050565b600060208201905061351860008301846130dd565b92915050565b600060208201905081810360008301526135388184613125565b905092915050565b600060208201905081810360008301526135598161318f565b9050919050565b60006020820190508181036000830152613579816131b2565b9050919050565b60006020820190508181036000830152613599816131d5565b9050919050565b600060208201905081810360008301526135b9816131f8565b9050919050565b600060208201905081810360008301526135d98161321b565b9050919050565b600060208201905081810360008301526135f98161323e565b9050919050565b6000602082019050818103600083015261361981613261565b9050919050565b6000602082019050818103600083015261363981613284565b9050919050565b60006020820190508181036000830152613659816132a7565b9050919050565b60006020820190508181036000830152613679816132ca565b9050919050565b60006020820190508181036000830152613699816132ed565b9050919050565b600060208201905081810360008301526136b981613310565b9050919050565b600060208201905081810360008301526136d981613333565b9050919050565b600060208201905081810360008301526136f981613356565b9050919050565b6000602082019050818103600083015261371981613379565b9050919050565b600060208201905081810360008301526137398161339c565b9050919050565b60006020820190508181036000830152613759816133bf565b9050919050565b60006020820190508181036000830152613779816133e2565b9050919050565b60006080820190506137956000830184613405565b92915050565b60006020820190506137b06000830184613469565b92915050565b60006137c06137d1565b90506137cc8282613a7d565b919050565b6000604051905090565b600067ffffffffffffffff8211156137f6576137f5613bb5565b5b6137ff82613be4565b9050602081019050919050565b600067ffffffffffffffff82111561382757613826613bb5565b5b61383082613be4565b9050602081019050919050565b600081519050919050565b600081519050919050565b600082825260208201905092915050565b600082825260208201905092915050565b600081905092915050565b600061388b826139ff565b9150613896836139ff565b9250827fffffffffffffffffffffffffffffffffffffffffffffffffffffffffffffffff038211156138cb576138ca613b28565b5b828201905092915050565b60006138e1826139ff565b91506138ec836139ff565b9250826138fc576138fb613b57565b5b828204905092915050565b6000613912826139ff565b915061391d836139ff565b9250817fffffffffffffffffffffffffffffffffffffffffffffffffffffffffffffffff048311821515161561395657613955613b28565b5b828202905092915050565b600061396c826139ff565b9150613977836139ff565b92508282101561398a57613989613b28565b5b828203905092915050565b60006139a0826139df565b9050919050565b60008115159050919050565b60007fffffffff0000000000000000000000000000000000000000000000000000000082169050919050565b600073ffffffffffffffffffffffffffffffffffffffff82169050919050565b6000819050919050565b82818337600083830152505050565b60005b83811015613a36578082015181840152602081019050613a1b565b83811115613a45576000848401525b50505050565b60006002820490506001821680613a6357607f821691505b60208210811415613a7757613a76613b86565b5b50919050565b613a8682613be4565b810181811067ffffffffffffffff82111715613aa557613aa4613bb5565b5b80604052505050565b6000613ab9826139ff565b91507fffffffffffffffffffffffffffffffffffffffffffffffffffffffffffffffff821415613aec57613aeb613b28565b5b600182019050919050565b6000613b02826139ff565b9150613b0d836139ff565b925082613b1d57613b1c613b57565b5b828206905092915050565b7f4e487b7100000000000000000000000000000000000000000000000000000000600052601160045260246000fd5b7f4e487b7100000000000000000000000000000000000000000000000000000000600052601260045260246000fd5b7f4e487b7100000000000000000000000000000000000000000000000000000000600052602260045260246000fd5b7f4e487b7100000000000000000000000000000000000000000000000000000000600052604160045260246000fd5b6000601f19601f8301169050919050565b7f455243373231456e756d657261626c653a206f776e657220696e646578206f7560008201527f74206f6620626f756e6473000000000000000000000000000000000000000000602082015250565b7f4552433732313a207472616e7366657220746f206e6f6e20455243373231526560008201527f63656976657220696d706c656d656e7465720000000000000000000000000000602082015250565b7f4f776e61626c653a206e6577206f776e657220697320746865207a65726f206160008201527f6464726573730000000000000000000000000000000000000000000000000000602082015250565b7f4552433732313a207472616e736665722066726f6d20696e636f72726563742060008201527f6f776e6572000000000000000000000000000000000000000000000000000000602082015250565b7f4552433732313a20746f6b656e20616c7265616479206d696e74656400000000600082015250565b7f4552433732313a207472616e7366657220746f20746865207a65726f2061646460008201527f7265737300000000000000000000000000000000000000000000000000000000602082015250565b7f4552433732313a20617070726f766520746f2063616c6c657200000000000000600082015250565b7f4552433732313a2061646472657373207a65726f206973206e6f74206120766160008201527f6c6964206f776e65720000000000000000000000000000000000000000000000602082015250565b7f45524337323155524953746f726167653a2055524920736574206f66206e6f6e60008201527f6578697374656e7420746f6b656e000000000000000000000000000000000000602082015250565b7f5472616e73666572206e6f7420616c6c6f776564000000000000000000000000600082015250565b7f4552433732313a20617070726f76652063616c6c6572206973206e6f7420746f60008201527f6b656e206f776e6572206e6f7220617070726f76656420666f7220616c6c0000602082015250565b7f4552433732313a206d696e7420746f20746865207a65726f2061646472657373600082015250565b7f4f776e61626c653a2063616c6c6572206973206e6f7420746865206f776e6572600082015250565b7f4552433732313a20696e76616c696420746f6b656e2049440000000000000000600082015250565b7f4552433732313a20617070726f76616c20746f2063757272656e74206f776e6560008201527f7200000000000000000000000000000000000000000000000000000000000000602082015250565b7f53656e646572206e6f74206f776e6572206f6620746f6b656e00000000000000600082015250565b7f455243373231456e756d657261626c653a20676c6f62616c20696e646578206f60008201527f7574206f6620626f756e64730000000000000000000000000000000000000000602082015250565b7f4552433732313a2063616c6c6572206973206e6f7420746f6b656e206f776e6560008201527f72206e6f7220617070726f766564000000000000000000000000000000000000602082015250565b61408281613995565b811461408d57600080fd5b50565b614099816139a7565b81146140a457600080fd5b50565b6140b0816139b3565b81146140bb57600080fd5b50565b6140c7816139ff565b81146140d257600080fd5b5056fea2646970667358221220391adafd143e321885ff307511f8d6a1cd239bc42decbff001df312b7cef9b9764736f6c63430008040033a26469706673582212204dcaac31f14ce520ed5bdad2c9543fc67af0d85b25406efe0b671561c0a0ece364736f6c63430008040033",
  "linkReferences": {},
  "deployedLinkReferences": {}
}